{
  "abi": [
    {
      "inputs": [
        {
          "internalType": "uint256",
          "name": "",
          "type": "uint256"
        }
      ],
      "name": "dataShards",
      "outputs": [
        {
          "internalType": "address",
          "name": "",
          "type": "address"
        }
      ],
      "stateMutability": "view",
      "type": "function"
    },
    {
      "inputs": [
        {
          "internalType": "uint256",
          "name": "_dataShard",
          "type": "uint256"
        },
        {
          "internalType": "bytes32",
          "name": "_id",
          "type": "bytes32"
        }
      ],
      "name": "fetchRecord",
      "outputs": [
        {
          "internalType": "uint256",
          "name": "",
          "type": "uint256"
        }
      ],
      "stateMutability": "view",
      "type": "function"
    },
    {
      "inputs": [],
      "name": "getInterval",
      "outputs": [
        {
          "internalType": "uint256",
          "name": "",
          "type": "uint256"
        }
      ],
      "stateMutability": "view",
      "type": "function"
    },
    {
      "inputs": [],
      "name": "getLatestDataShard",
      "outputs": [
        {
          "internalType": "address",
          "name": "",
          "type": "address"
        }
      ],
      "stateMutability": "view",
      "type": "function"
    },
    {
      "inputs": [],
      "name": "getTotalShards",
      "outputs": [
        {
          "internalType": "uint256",
          "name": "",
          "type": "uint256"
        }
      ],
      "stateMutability": "pure",
      "type": "function"
    },
    {
      "inputs": [],
      "name": "interval",
      "outputs": [
        {
          "internalType": "uint256",
          "name": "",
          "type": "uint256"
        }
      ],
      "stateMutability": "view",
      "type": "function"
    },
    {
      "inputs": [],
      "name": "resetDataShard",
      "outputs": [
        {
          "internalType": "contract DataShard",
          "name": "",
          "type": "address"
        }
      ],
      "stateMutability": "nonpayable",
      "type": "function"
    }
  ],
  "evm": {
    "bytecode": {
      "linkReferences": {},
      "object": "608060405234801561001057600080fd5b50610af5806100206000396000f3fe608060405234801561001057600080fd5b506004361061007d5760003560e01c806391ad27b41161005b57806391ad27b4146100bb578063947a36fb146100d0578063a63d6e44146100d8578063e345f8d1146100e05761007d565b806327a82be51461008257806334ee6476146100a05780637fd99437146100b3575b600080fd5b61008a6100f3565b6040516100979190610468565b60405180910390f35b61008a6100ae366004610417565b610303565b61008a61031e565b6100c3610343565b604051610097919061047c565b6100c3610349565b6100c361034f565b6100c36100ee366004610447565b610354565b603454600080805260336020908152600080516020610aa083398151915254604080516320ffd56d60e01b815290519394936001600160a01b03909216926320ffd56d92600480840193829003018186803b15801561015157600080fd5b505afa158015610165573d6000803e3d6000fd5b505050506040513d601f19601f82011682018060405250610189919081019061042f565b4303106103005760336020527f10f6f77027d502f219862b0303542eb5dd005b06fa23ff4d1775aaa45bbf94778054600080516020610aa083398151915254600160009081526001600160a01b031983166001600160a01b0392831617909355604051911691906101f99061040a565b604051809103906000f080158015610215573d6000803e3d6000fd5b5060405163189acdbd60e31b81529091506001600160a01b0382169063c4d66de890610245903090600401610468565b600060405180830381600087803b15801561025f57600080fd5b505af1158015610273573d6000803e3d6000fd5b505060008080526033602052600080516020610aa083398151915280546001600160a01b0319166001600160a01b0386811691909117909155604080516341c0e1b560e01b8152905191871694506341c0e1b59350600480820193929182900301818387803b1580156102e557600080fd5b505af11580156102f9573d6000803e3d6000fd5b5050505050505b90565b6033602052600090815260409020546001600160a01b031681565b600080526033602052600080516020610aa0833981519152546001600160a01b031690565b60345490565b60345481565b600290565b6000828152603360205260408120546001600160a01b03161561040457600083815260336020526040908190205490516313bf242360e31b81526001600160a01b03909116908190639df92118906103b090869060040161047c565b60206040518083038186803b1580156103c857600080fd5b505afa1580156103dc573d6000803e3d6000fd5b505050506040513d601f19601f82011682018060405250610400919081019061042f565b9150505b92915050565b61061a8061048683390190565b600060208284031215610428578081fd5b5035919050565b600060208284031215610440578081fd5b5051919050565b60008060408385031215610459578081fd5b50508035926020909101359150565b6001600160a01b0391909116815260200190565b9081526020019056fe608060405260006100176001600160e01b0361006a16565b603380546001600160a01b0319166001600160a01b038316908117909155604051919250906000907f8be0079c531659141344cd1fd0a4f28419497f9722a3daafe3b4186f6b6457e0908290a35061006e565b3390565b61059d8061007d6000396000f3fe608060405234801561001057600080fd5b506004361061009e5760003560e01c80638da5cb5b116100665780638da5cb5b146100ee5780638f32d59b146101035780639df9211814610118578063c4d66de81461012b578063f2fde38b1461013e5761009e565b806311f8d30a146100a357806317634514146100b857806320ffd56d146100d657806341c0e1b5146100de578063715018a6146100e6575b600080fd5b6100b66100b1366004610455565b610151565b005b6100c06101a7565b6040516100cd919061055e565b60405180910390f35b6100c06101ad565b6100b66101b3565b6100b66101ea565b6100f6610258565b6040516100cd9190610476565b61010b610267565b6040516100cd919061048a565b6100c061012636600461043d565b61028d565b6100b661013936600461040f565b61029f565b6100b661014c36600461040f565b610353565b610159610267565b61017e5760405162461bcd60e51b8152600401610175906104db565b60405180910390fd5b6000828152603560205260409020546101a35760008281526035602052604090208190555b5050565b60345481565b60345490565b6101bb610267565b6101d75760405162461bcd60e51b8152600401610175906104db565b6101df610258565b6001600160a01b0316ff5b6101f2610267565b61020e5760405162461bcd60e51b8152600401610175906104db565b6033546040516000916001600160a01b0316907f8be0079c531659141344cd1fd0a4f28419497f9722a3daafe3b4186f6b6457e0908390a3603380546001600160a01b0319169055565b6033546001600160a01b031690565b6033546000906001600160a01b031661027e610383565b6001600160a01b031614905090565b60009081526035602052604090205490565b600054610100900460ff16806102b857506102b8610387565b806102c6575060005460ff16155b6102e25760405162461bcd60e51b815260040161017590610510565b600054610100900460ff1615801561030d576000805460ff1961ff0019909116610100171660011790555b610315610267565b6103315760405162461bcd60e51b8152600401610175906104db565b4360345561033e8261038d565b80156101a3576000805461ff00191690555050565b61035b610267565b6103775760405162461bcd60e51b8152600401610175906104db565b6103808161038d565b50565b3390565b303b1590565b6001600160a01b0381166103b35760405162461bcd60e51b815260040161017590610495565b6033546040516001600160a01b038084169216907f8be0079c531659141344cd1fd0a4f28419497f9722a3daafe3b4186f6b6457e090600090a3603380546001600160a01b0319166001600160a01b0392909216919091179055565b600060208284031215610420578081fd5b81356001600160a01b0381168114610436578182fd5b9392505050565b60006020828403121561044e578081fd5b5035919050565b60008060408385031215610467578081fd5b50508035926020909101359150565b6001600160a01b0391909116815260200190565b901515815260200190565b60208082526026908201527f4f776e61626c653a206e6577206f776e657220697320746865207a65726f206160408201526564647265737360d01b606082015260800190565b6020808252818101527f4f776e61626c653a2063616c6c6572206973206e6f7420746865206f776e6572604082015260600190565b6020808252602e908201527f436f6e747261637420696e7374616e63652068617320616c726561647920626560408201526d195b881a5b9a5d1a585b1a5e995960921b606082015260800190565b9081526020019056fea2646970667358221220c3a1944e96b5b39558436742e100bedc806ba385b6484ef80b9beac3786d2d6a64736f6c6343000602003344496df070da3f045064f6d6f394484a8de10d5710290d619b67d975ec89320fa26469706673582212209c8683d1a7d65430029fb199d45b59b59684533cc06f18668ea3e7dc66a58fa864736f6c63430006020033",
      "opcodes": "PUSH1 0x80 PUSH1 0x40 MSTORE CALLVALUE DUP1 ISZERO PUSH2 0x10 JUMPI PUSH1 0x0 DUP1 REVERT JUMPDEST POP PUSH2 0xAF5 DUP1 PUSH2 0x20 PUSH1 0x0 CODECOPY PUSH1 0x0 RETURN INVALID PUSH1 0x80 PUSH1 0x40 MSTORE CALLVALUE DUP1 ISZERO PUSH2 0x10 JUMPI PUSH1 0x0 DUP1 REVERT JUMPDEST POP PUSH1 0x4 CALLDATASIZE LT PUSH2 0x7D JUMPI PUSH1 0x0 CALLDATALOAD PUSH1 0xE0 SHR DUP1 PUSH4 0x91AD27B4 GT PUSH2 0x5B JUMPI DUP1 PUSH4 0x91AD27B4 EQ PUSH2 0xBB JUMPI DUP1 PUSH4 0x947A36FB EQ PUSH2 0xD0 JUMPI DUP1 PUSH4 0xA63D6E44 EQ PUSH2 0xD8 JUMPI DUP1 PUSH4 0xE345F8D1 EQ PUSH2 0xE0 JUMPI PUSH2 0x7D JUMP JUMPDEST DUP1 PUSH4 0x27A82BE5 EQ PUSH2 0x82 JUMPI DUP1 PUSH4 0x34EE6476 EQ PUSH2 0xA0 JUMPI DUP1 PUSH4 0x7FD99437 EQ PUSH2 0xB3 JUMPI JUMPDEST PUSH1 0x0 DUP1 REVERT JUMPDEST PUSH2 0x8A PUSH2 0xF3 JUMP JUMPDEST PUSH1 0x40 MLOAD PUSH2 0x97 SWAP2 SWAP1 PUSH2 0x468 JUMP JUMPDEST PUSH1 0x40 MLOAD DUP1 SWAP2 SUB SWAP1 RETURN JUMPDEST PUSH2 0x8A PUSH2 0xAE CALLDATASIZE PUSH1 0x4 PUSH2 0x417 JUMP JUMPDEST PUSH2 0x303 JUMP JUMPDEST PUSH2 0x8A PUSH2 0x31E JUMP JUMPDEST PUSH2 0xC3 PUSH2 0x343 JUMP JUMPDEST PUSH1 0x40 MLOAD PUSH2 0x97 SWAP2 SWAP1 PUSH2 0x47C JUMP JUMPDEST PUSH2 0xC3 PUSH2 0x349 JUMP JUMPDEST PUSH2 0xC3 PUSH2 0x34F JUMP JUMPDEST PUSH2 0xC3 PUSH2 0xEE CALLDATASIZE PUSH1 0x4 PUSH2 0x447 JUMP JUMPDEST PUSH2 0x354 JUMP JUMPDEST PUSH1 0x34 SLOAD PUSH1 0x0 DUP1 DUP1 MSTORE PUSH1 0x33 PUSH1 0x20 SWAP1 DUP2 MSTORE PUSH1 0x0 DUP1 MLOAD PUSH1 0x20 PUSH2 0xAA0 DUP4 CODECOPY DUP2 MLOAD SWAP2 MSTORE SLOAD PUSH1 0x40 DUP1 MLOAD PUSH4 0x20FFD56D PUSH1 0xE0 SHL DUP2 MSTORE SWAP1 MLOAD SWAP4 SWAP5 SWAP4 PUSH1 0x1 PUSH1 0x1 PUSH1 0xA0 SHL SUB SWAP1 SWAP3 AND SWAP3 PUSH4 0x20FFD56D SWAP3 PUSH1 0x4 DUP1 DUP5 ADD SWAP4 DUP3 SWAP1 SUB ADD DUP2 DUP7 DUP1 EXTCODESIZE ISZERO DUP1 ISZERO PUSH2 0x151 JUMPI PUSH1 0x0 DUP1 REVERT JUMPDEST POP GAS STATICCALL ISZERO DUP1 ISZERO PUSH2 0x165 JUMPI RETURNDATASIZE PUSH1 0x0 DUP1 RETURNDATACOPY RETURNDATASIZE PUSH1 0x0 REVERT JUMPDEST POP POP POP POP PUSH1 0x40 MLOAD RETURNDATASIZE PUSH1 0x1F NOT PUSH1 0x1F DUP3 ADD AND DUP3 ADD DUP1 PUSH1 0x40 MSTORE POP PUSH2 0x189 SWAP2 SWAP1 DUP2 ADD SWAP1 PUSH2 0x42F JUMP JUMPDEST NUMBER SUB LT PUSH2 0x300 JUMPI PUSH1 0x33 PUSH1 0x20 MSTORE PUSH32 0x10F6F77027D502F219862B0303542EB5DD005B06FA23FF4D1775AAA45BBF9477 DUP1 SLOAD PUSH1 0x0 DUP1 MLOAD PUSH1 0x20 PUSH2 0xAA0 DUP4 CODECOPY DUP2 MLOAD SWAP2 MSTORE SLOAD PUSH1 0x1 PUSH1 0x0 SWAP1 DUP2 MSTORE PUSH1 0x1 PUSH1 0x1 PUSH1 0xA0 SHL SUB NOT DUP4 AND PUSH1 0x1 PUSH1 0x1 PUSH1 0xA0 SHL SUB SWAP3 DUP4 AND OR SWAP1 SWAP4 SSTORE PUSH1 0x40 MLOAD SWAP2 AND SWAP2 SWAP1 PUSH2 0x1F9 SWAP1 PUSH2 0x40A JUMP JUMPDEST PUSH1 0x40 MLOAD DUP1 SWAP2 SUB SWAP1 PUSH1 0x0 CREATE DUP1 ISZERO DUP1 ISZERO PUSH2 0x215 JUMPI RETURNDATASIZE PUSH1 0x0 DUP1 RETURNDATACOPY RETURNDATASIZE PUSH1 0x0 REVERT JUMPDEST POP PUSH1 0x40 MLOAD PUSH4 0x189ACDBD PUSH1 0xE3 SHL DUP2 MSTORE SWAP1 SWAP2 POP PUSH1 0x1 PUSH1 0x1 PUSH1 0xA0 SHL SUB DUP3 AND SWAP1 PUSH4 0xC4D66DE8 SWAP1 PUSH2 0x245 SWAP1 ADDRESS SWAP1 PUSH1 0x4 ADD PUSH2 0x468 JUMP JUMPDEST PUSH1 0x0 PUSH1 0x40 MLOAD DUP1 DUP4 SUB DUP2 PUSH1 0x0 DUP8 DUP1 EXTCODESIZE ISZERO DUP1 ISZERO PUSH2 0x25F JUMPI PUSH1 0x0 DUP1 REVERT JUMPDEST POP GAS CALL ISZERO DUP1 ISZERO PUSH2 0x273 JUMPI RETURNDATASIZE PUSH1 0x0 DUP1 RETURNDATACOPY RETURNDATASIZE PUSH1 0x0 REVERT JUMPDEST POP POP PUSH1 0x0 DUP1 DUP1 MSTORE PUSH1 0x33 PUSH1 0x20 MSTORE PUSH1 0x0 DUP1 MLOAD PUSH1 0x20 PUSH2 0xAA0 DUP4 CODECOPY DUP2 MLOAD SWAP2 MSTORE DUP1 SLOAD PUSH1 0x1 PUSH1 0x1 PUSH1 0xA0 SHL SUB NOT AND PUSH1 0x1 PUSH1 0x1 PUSH1 0xA0 SHL SUB DUP7 DUP2 AND SWAP2 SWAP1 SWAP2 OR SWAP1 SWAP2 SSTORE PUSH1 0x40 DUP1 MLOAD PUSH4 0x41C0E1B5 PUSH1 0xE0 SHL DUP2 MSTORE SWAP1 MLOAD SWAP2 DUP8 AND SWAP5 POP PUSH4 0x41C0E1B5 SWAP4 POP PUSH1 0x4 DUP1 DUP3 ADD SWAP4 SWAP3 SWAP2 DUP3 SWAP1 SUB ADD DUP2 DUP4 DUP8 DUP1 EXTCODESIZE ISZERO DUP1 ISZERO PUSH2 0x2E5 JUMPI PUSH1 0x0 DUP1 REVERT JUMPDEST POP GAS CALL ISZERO DUP1 ISZERO PUSH2 0x2F9 JUMPI RETURNDATASIZE PUSH1 0x0 DUP1 RETURNDATACOPY RETURNDATASIZE PUSH1 0x0 REVERT JUMPDEST POP POP POP POP POP POP JUMPDEST SWAP1 JUMP JUMPDEST PUSH1 0x33 PUSH1 0x20 MSTORE PUSH1 0x0 SWAP1 DUP2 MSTORE PUSH1 0x40 SWAP1 KECCAK256 SLOAD PUSH1 0x1 PUSH1 0x1 PUSH1 0xA0 SHL SUB AND DUP2 JUMP JUMPDEST PUSH1 0x0 DUP1 MSTORE PUSH1 0x33 PUSH1 0x20 MSTORE PUSH1 0x0 DUP1 MLOAD PUSH1 0x20 PUSH2 0xAA0 DUP4 CODECOPY DUP2 MLOAD SWAP2 MSTORE SLOAD PUSH1 0x1 PUSH1 0x1 PUSH1 0xA0 SHL SUB AND SWAP1 JUMP JUMPDEST PUSH1 0x34 SLOAD SWAP1 JUMP JUMPDEST PUSH1 0x34 SLOAD DUP2 JUMP JUMPDEST PUSH1 0x2 SWAP1 JUMP JUMPDEST PUSH1 0x0 DUP3 DUP2 MSTORE PUSH1 0x33 PUSH1 0x20 MSTORE PUSH1 0x40 DUP2 KECCAK256 SLOAD PUSH1 0x1 PUSH1 0x1 PUSH1 0xA0 SHL SUB AND ISZERO PUSH2 0x404 JUMPI PUSH1 0x0 DUP4 DUP2 MSTORE PUSH1 0x33 PUSH1 0x20 MSTORE PUSH1 0x40 SWAP1 DUP2 SWAP1 KECCAK256 SLOAD SWAP1 MLOAD PUSH4 0x13BF2423 PUSH1 0xE3 SHL DUP2 MSTORE PUSH1 0x1 PUSH1 0x1 PUSH1 0xA0 SHL SUB SWAP1 SWAP2 AND SWAP1 DUP2 SWAP1 PUSH4 0x9DF92118 SWAP1 PUSH2 0x3B0 SWAP1 DUP7 SWAP1 PUSH1 0x4 ADD PUSH2 0x47C JUMP JUMPDEST PUSH1 0x20 PUSH1 0x40 MLOAD DUP1 DUP4 SUB DUP2 DUP7 DUP1 EXTCODESIZE ISZERO DUP1 ISZERO PUSH2 0x3C8 JUMPI PUSH1 0x0 DUP1 REVERT JUMPDEST POP GAS STATICCALL ISZERO DUP1 ISZERO PUSH2 0x3DC JUMPI RETURNDATASIZE PUSH1 0x0 DUP1 RETURNDATACOPY RETURNDATASIZE PUSH1 0x0 REVERT JUMPDEST POP POP POP POP PUSH1 0x40 MLOAD RETURNDATASIZE PUSH1 0x1F NOT PUSH1 0x1F DUP3 ADD AND DUP3 ADD DUP1 PUSH1 0x40 MSTORE POP PUSH2 0x400 SWAP2 SWAP1 DUP2 ADD SWAP1 PUSH2 0x42F JUMP JUMPDEST SWAP2 POP POP JUMPDEST SWAP3 SWAP2 POP POP JUMP JUMPDEST PUSH2 0x61A DUP1 PUSH2 0x486 DUP4 CODECOPY ADD SWAP1 JUMP JUMPDEST PUSH1 0x0 PUSH1 0x20 DUP3 DUP5 SUB SLT ISZERO PUSH2 0x428 JUMPI DUP1 DUP2 REVERT JUMPDEST POP CALLDATALOAD SWAP2 SWAP1 POP JUMP JUMPDEST PUSH1 0x0 PUSH1 0x20 DUP3 DUP5 SUB SLT ISZERO PUSH2 0x440 JUMPI DUP1 DUP2 REVERT JUMPDEST POP MLOAD SWAP2 SWAP1 POP JUMP JUMPDEST PUSH1 0x0 DUP1 PUSH1 0x40 DUP4 DUP6 SUB SLT ISZERO PUSH2 0x459 JUMPI DUP1 DUP2 REVERT JUMPDEST POP POP DUP1 CALLDATALOAD SWAP3 PUSH1 0x20 SWAP1 SWAP2 ADD CALLDATALOAD SWAP2 POP JUMP JUMPDEST PUSH1 0x1 PUSH1 0x1 PUSH1 0xA0 SHL SUB SWAP2 SWAP1 SWAP2 AND DUP2 MSTORE PUSH1 0x20 ADD SWAP1 JUMP JUMPDEST SWAP1 DUP2 MSTORE PUSH1 0x20 ADD SWAP1 JUMP INVALID PUSH1 0x80 PUSH1 0x40 MSTORE PUSH1 0x0 PUSH2 0x17 PUSH1 0x1 PUSH1 0x1 PUSH1 0xE0 SHL SUB PUSH2 0x6A AND JUMP JUMPDEST PUSH1 0x33 DUP1 SLOAD PUSH1 0x1 PUSH1 0x1 PUSH1 0xA0 SHL SUB NOT AND PUSH1 0x1 PUSH1 0x1 PUSH1 0xA0 SHL SUB DUP4 AND SWAP1 DUP2 OR SWAP1 SWAP2 SSTORE PUSH1 0x40 MLOAD SWAP2 SWAP3 POP SWAP1 PUSH1 0x0 SWAP1 PUSH32 0x8BE0079C531659141344CD1FD0A4F28419497F9722A3DAAFE3B4186F6B6457E0 SWAP1 DUP3 SWAP1 LOG3 POP PUSH2 0x6E JUMP JUMPDEST CALLER SWAP1 JUMP JUMPDEST PUSH2 0x59D DUP1 PUSH2 0x7D PUSH1 0x0 CODECOPY PUSH1 0x0 RETURN INVALID PUSH1 0x80 PUSH1 0x40 MSTORE CALLVALUE DUP1 ISZERO PUSH2 0x10 JUMPI PUSH1 0x0 DUP1 REVERT JUMPDEST POP PUSH1 0x4 CALLDATASIZE LT PUSH2 0x9E JUMPI PUSH1 0x0 CALLDATALOAD PUSH1 0xE0 SHR DUP1 PUSH4 0x8DA5CB5B GT PUSH2 0x66 JUMPI DUP1 PUSH4 0x8DA5CB5B EQ PUSH2 0xEE JUMPI DUP1 PUSH4 0x8F32D59B EQ PUSH2 0x103 JUMPI DUP1 PUSH4 0x9DF92118 EQ PUSH2 0x118 JUMPI DUP1 PUSH4 0xC4D66DE8 EQ PUSH2 0x12B JUMPI DUP1 PUSH4 0xF2FDE38B EQ PUSH2 0x13E JUMPI PUSH2 0x9E JUMP JUMPDEST DUP1 PUSH4 0x11F8D30A EQ PUSH2 0xA3 JUMPI DUP1 PUSH4 0x17634514 EQ PUSH2 0xB8 JUMPI DUP1 PUSH4 0x20FFD56D EQ PUSH2 0xD6 JUMPI DUP1 PUSH4 0x41C0E1B5 EQ PUSH2 0xDE JUMPI DUP1 PUSH4 0x715018A6 EQ PUSH2 0xE6 JUMPI JUMPDEST PUSH1 0x0 DUP1 REVERT JUMPDEST PUSH2 0xB6 PUSH2 0xB1 CALLDATASIZE PUSH1 0x4 PUSH2 0x455 JUMP JUMPDEST PUSH2 0x151 JUMP JUMPDEST STOP JUMPDEST PUSH2 0xC0 PUSH2 0x1A7 JUMP JUMPDEST PUSH1 0x40 MLOAD PUSH2 0xCD SWAP2 SWAP1 PUSH2 0x55E JUMP JUMPDEST PUSH1 0x40 MLOAD DUP1 SWAP2 SUB SWAP1 RETURN JUMPDEST PUSH2 0xC0 PUSH2 0x1AD JUMP JUMPDEST PUSH2 0xB6 PUSH2 0x1B3 JUMP JUMPDEST PUSH2 0xB6 PUSH2 0x1EA JUMP JUMPDEST PUSH2 0xF6 PUSH2 0x258 JUMP JUMPDEST PUSH1 0x40 MLOAD PUSH2 0xCD SWAP2 SWAP1 PUSH2 0x476 JUMP JUMPDEST PUSH2 0x10B PUSH2 0x267 JUMP JUMPDEST PUSH1 0x40 MLOAD PUSH2 0xCD SWAP2 SWAP1 PUSH2 0x48A JUMP JUMPDEST PUSH2 0xC0 PUSH2 0x126 CALLDATASIZE PUSH1 0x4 PUSH2 0x43D JUMP JUMPDEST PUSH2 0x28D JUMP JUMPDEST PUSH2 0xB6 PUSH2 0x139 CALLDATASIZE PUSH1 0x4 PUSH2 0x40F JUMP JUMPDEST PUSH2 0x29F JUMP JUMPDEST PUSH2 0xB6 PUSH2 0x14C CALLDATASIZE PUSH1 0x4 PUSH2 0x40F JUMP JUMPDEST PUSH2 0x353 JUMP JUMPDEST PUSH2 0x159 PUSH2 0x267 JUMP JUMPDEST PUSH2 0x17E JUMPI PUSH1 0x40 MLOAD PUSH3 0x461BCD PUSH1 0xE5 SHL DUP2 MSTORE PUSH1 0x4 ADD PUSH2 0x175 SWAP1 PUSH2 0x4DB JUMP JUMPDEST PUSH1 0x40 MLOAD DUP1 SWAP2 SUB SWAP1 REVERT JUMPDEST PUSH1 0x0 DUP3 DUP2 MSTORE PUSH1 0x35 PUSH1 0x20 MSTORE PUSH1 0x40 SWAP1 KECCAK256 SLOAD PUSH2 0x1A3 JUMPI PUSH1 0x0 DUP3 DUP2 MSTORE PUSH1 0x35 PUSH1 0x20 MSTORE PUSH1 0x40 SWAP1 KECCAK256 DUP2 SWAP1 SSTORE JUMPDEST POP POP JUMP JUMPDEST PUSH1 0x34 SLOAD DUP2 JUMP JUMPDEST PUSH1 0x34 SLOAD SWAP1 JUMP JUMPDEST PUSH2 0x1BB PUSH2 0x267 JUMP JUMPDEST PUSH2 0x1D7 JUMPI PUSH1 0x40 MLOAD PUSH3 0x461BCD PUSH1 0xE5 SHL DUP2 MSTORE PUSH1 0x4 ADD PUSH2 0x175 SWAP1 PUSH2 0x4DB JUMP JUMPDEST PUSH2 0x1DF PUSH2 0x258 JUMP JUMPDEST PUSH1 0x1 PUSH1 0x1 PUSH1 0xA0 SHL SUB AND SELFDESTRUCT JUMPDEST PUSH2 0x1F2 PUSH2 0x267 JUMP JUMPDEST PUSH2 0x20E JUMPI PUSH1 0x40 MLOAD PUSH3 0x461BCD PUSH1 0xE5 SHL DUP2 MSTORE PUSH1 0x4 ADD PUSH2 0x175 SWAP1 PUSH2 0x4DB JUMP JUMPDEST PUSH1 0x33 SLOAD PUSH1 0x40 MLOAD PUSH1 0x0 SWAP2 PUSH1 0x1 PUSH1 0x1 PUSH1 0xA0 SHL SUB AND SWAP1 PUSH32 0x8BE0079C531659141344CD1FD0A4F28419497F9722A3DAAFE3B4186F6B6457E0 SWAP1 DUP4 SWAP1 LOG3 PUSH1 0x33 DUP1 SLOAD PUSH1 0x1 PUSH1 0x1 PUSH1 0xA0 SHL SUB NOT AND SWAP1 SSTORE JUMP JUMPDEST PUSH1 0x33 SLOAD PUSH1 0x1 PUSH1 0x1 PUSH1 0xA0 SHL SUB AND SWAP1 JUMP JUMPDEST PUSH1 0x33 SLOAD PUSH1 0x0 SWAP1 PUSH1 0x1 PUSH1 0x1 PUSH1 0xA0 SHL SUB AND PUSH2 0x27E PUSH2 0x383 JUMP JUMPDEST PUSH1 0x1 PUSH1 0x1 PUSH1 0xA0 SHL SUB AND EQ SWAP1 POP SWAP1 JUMP JUMPDEST PUSH1 0x0 SWAP1 DUP2 MSTORE PUSH1 0x35 PUSH1 0x20 MSTORE PUSH1 0x40 SWAP1 KECCAK256 SLOAD SWAP1 JUMP JUMPDEST PUSH1 0x0 SLOAD PUSH2 0x100 SWAP1 DIV PUSH1 0xFF AND DUP1 PUSH2 0x2B8 JUMPI POP PUSH2 0x2B8 PUSH2 0x387 JUMP JUMPDEST DUP1 PUSH2 0x2C6 JUMPI POP PUSH1 0x0 SLOAD PUSH1 0xFF AND ISZERO JUMPDEST PUSH2 0x2E2 JUMPI PUSH1 0x40 MLOAD PUSH3 0x461BCD PUSH1 0xE5 SHL DUP2 MSTORE PUSH1 0x4 ADD PUSH2 0x175 SWAP1 PUSH2 0x510 JUMP JUMPDEST PUSH1 0x0 SLOAD PUSH2 0x100 SWAP1 DIV PUSH1 0xFF AND ISZERO DUP1 ISZERO PUSH2 0x30D JUMPI PUSH1 0x0 DUP1 SLOAD PUSH1 0xFF NOT PUSH2 0xFF00 NOT SWAP1 SWAP2 AND PUSH2 0x100 OR AND PUSH1 0x1 OR SWAP1 SSTORE JUMPDEST PUSH2 0x315 PUSH2 0x267 JUMP JUMPDEST PUSH2 0x331 JUMPI PUSH1 0x40 MLOAD PUSH3 0x461BCD PUSH1 0xE5 SHL DUP2 MSTORE PUSH1 0x4 ADD PUSH2 0x175 SWAP1 PUSH2 0x4DB JUMP JUMPDEST NUMBER PUSH1 0x34 SSTORE PUSH2 0x33E DUP3 PUSH2 0x38D JUMP JUMPDEST DUP1 ISZERO PUSH2 0x1A3 JUMPI PUSH1 0x0 DUP1 SLOAD PUSH2 0xFF00 NOT AND SWAP1 SSTORE POP POP JUMP JUMPDEST PUSH2 0x35B PUSH2 0x267 JUMP JUMPDEST PUSH2 0x377 JUMPI PUSH1 0x40 MLOAD PUSH3 0x461BCD PUSH1 0xE5 SHL DUP2 MSTORE PUSH1 0x4 ADD PUSH2 0x175 SWAP1 PUSH2 0x4DB JUMP JUMPDEST PUSH2 0x380 DUP2 PUSH2 0x38D JUMP JUMPDEST POP JUMP JUMPDEST CALLER SWAP1 JUMP JUMPDEST ADDRESS EXTCODESIZE ISZERO SWAP1 JUMP JUMPDEST PUSH1 0x1 PUSH1 0x1 PUSH1 0xA0 SHL SUB DUP2 AND PUSH2 0x3B3 JUMPI PUSH1 0x40 MLOAD PUSH3 0x461BCD PUSH1 0xE5 SHL DUP2 MSTORE PUSH1 0x4 ADD PUSH2 0x175 SWAP1 PUSH2 0x495 JUMP JUMPDEST PUSH1 0x33 SLOAD PUSH1 0x40 MLOAD PUSH1 0x1 PUSH1 0x1 PUSH1 0xA0 SHL SUB DUP1 DUP5 AND SWAP3 AND SWAP1 PUSH32 0x8BE0079C531659141344CD1FD0A4F28419497F9722A3DAAFE3B4186F6B6457E0 SWAP1 PUSH1 0x0 SWAP1 LOG3 PUSH1 0x33 DUP1 SLOAD PUSH1 0x1 PUSH1 0x1 PUSH1 0xA0 SHL SUB NOT AND PUSH1 0x1 PUSH1 0x1 PUSH1 0xA0 SHL SUB SWAP3 SWAP1 SWAP3 AND SWAP2 SWAP1 SWAP2 OR SWAP1 SSTORE JUMP JUMPDEST PUSH1 0x0 PUSH1 0x20 DUP3 DUP5 SUB SLT ISZERO PUSH2 0x420 JUMPI DUP1 DUP2 REVERT JUMPDEST DUP2 CALLDATALOAD PUSH1 0x1 PUSH1 0x1 PUSH1 0xA0 SHL SUB DUP2 AND DUP2 EQ PUSH2 0x436 JUMPI DUP2 DUP3 REVERT JUMPDEST SWAP4 SWAP3 POP POP POP JUMP JUMPDEST PUSH1 0x0 PUSH1 0x20 DUP3 DUP5 SUB SLT ISZERO PUSH2 0x44E JUMPI DUP1 DUP2 REVERT JUMPDEST POP CALLDATALOAD SWAP2 SWAP1 POP JUMP JUMPDEST PUSH1 0x0 DUP1 PUSH1 0x40 DUP4 DUP6 SUB SLT ISZERO PUSH2 0x467 JUMPI DUP1 DUP2 REVERT JUMPDEST POP POP DUP1 CALLDATALOAD SWAP3 PUSH1 0x20 SWAP1 SWAP2 ADD CALLDATALOAD SWAP2 POP JUMP JUMPDEST PUSH1 0x1 PUSH1 0x1 PUSH1 0xA0 SHL SUB SWAP2 SWAP1 SWAP2 AND DUP2 MSTORE PUSH1 0x20 ADD SWAP1 JUMP JUMPDEST SWAP1 ISZERO ISZERO DUP2 MSTORE PUSH1 0x20 ADD SWAP1 JUMP JUMPDEST PUSH1 0x20 DUP1 DUP3 MSTORE PUSH1 0x26 SWAP1 DUP3 ADD MSTORE PUSH32 0x4F776E61626C653A206E6577206F776E657220697320746865207A65726F2061 PUSH1 0x40 DUP3 ADD MSTORE PUSH6 0x646472657373 PUSH1 0xD0 SHL PUSH1 0x60 DUP3 ADD MSTORE PUSH1 0x80 ADD SWAP1 JUMP JUMPDEST PUSH1 0x20 DUP1 DUP3 MSTORE DUP2 DUP2 ADD MSTORE PUSH32 0x4F776E61626C653A2063616C6C6572206973206E6F7420746865206F776E6572 PUSH1 0x40 DUP3 ADD MSTORE PUSH1 0x60 ADD SWAP1 JUMP JUMPDEST PUSH1 0x20 DUP1 DUP3 MSTORE PUSH1 0x2E SWAP1 DUP3 ADD MSTORE PUSH32 0x436F6E747261637420696E7374616E63652068617320616C7265616479206265 PUSH1 0x40 DUP3 ADD MSTORE PUSH14 0x195B881A5B9A5D1A585B1A5E9959 PUSH1 0x92 SHL PUSH1 0x60 DUP3 ADD MSTORE PUSH1 0x80 ADD SWAP1 JUMP JUMPDEST SWAP1 DUP2 MSTORE PUSH1 0x20 ADD SWAP1 JUMP INVALID LOG2 PUSH5 0x6970667358 0x22 SLT KECCAK256 0xC3 LOG1 SWAP5 0x4E SWAP7 0xB5 0xB3 SWAP6 PC NUMBER PUSH8 0x42E100BEDC806BA3 DUP6 0xB6 0x48 0x4E 0xF8 SIGNEXTEND SWAP12 0xEA 0xC3 PUSH25 0x6D2D6A64736F6C6343000602003344496DF070DA3F045064F6 0xD6 RETURN SWAP5 0x48 0x4A DUP14 0xE1 0xD JUMPI LT 0x29 0xD PUSH2 0x9B67 0xD9 PUSH22 0xEC89320FA26469706673582212209C8683D1A7D65430 MUL SWAP16 0xB1 SWAP10 0xD4 JUMPDEST MSIZE 0xB5 SWAP7 DUP5 MSTORE8 EXTCODECOPY 0xC0 PUSH16 0x18668EA3E7DC66A58FA864736F6C6343 STOP MOD MUL STOP CALLER "
    }
  },
  "interface": [
    {
      "inputs": [
        {
          "internalType": "uint256",
          "name": "",
          "type": "uint256"
        }
      ],
      "name": "dataShards",
      "outputs": [
        {
          "internalType": "address",
          "name": "",
          "type": "address"
        }
      ],
      "stateMutability": "view",
      "type": "function"
    },
    {
      "inputs": [
        {
          "internalType": "uint256",
          "name": "_dataShard",
          "type": "uint256"
        },
        {
          "internalType": "bytes32",
          "name": "_id",
          "type": "bytes32"
        }
      ],
      "name": "fetchRecord",
      "outputs": [
        {
          "internalType": "uint256",
          "name": "",
          "type": "uint256"
        }
      ],
      "stateMutability": "view",
      "type": "function"
    },
    {
      "inputs": [],
      "name": "getInterval",
      "outputs": [
        {
          "internalType": "uint256",
          "name": "",
          "type": "uint256"
        }
      ],
      "stateMutability": "view",
      "type": "function"
    },
    {
      "inputs": [],
      "name": "getLatestDataShard",
      "outputs": [
        {
          "internalType": "address",
          "name": "",
          "type": "address"
        }
      ],
      "stateMutability": "view",
      "type": "function"
    },
    {
      "inputs": [],
      "name": "getTotalShards",
      "outputs": [
        {
          "internalType": "uint256",
          "name": "",
          "type": "uint256"
        }
      ],
      "stateMutability": "pure",
      "type": "function"
    },
    {
      "inputs": [],
      "name": "interval",
      "outputs": [
        {
          "internalType": "uint256",
          "name": "",
          "type": "uint256"
        }
      ],
      "stateMutability": "view",
      "type": "function"
    },
    {
      "inputs": [],
      "name": "resetDataShard",
      "outputs": [
        {
          "internalType": "contract DataShard",
          "name": "",
          "type": "address"
        }
      ],
      "stateMutability": "nonpayable",
      "type": "function"
    }
  ]
}