{
  "abi": [
    {
      "inputs": [
        {
          "components": [
            {
              "internalType": "address",
              "name": "to",
              "type": "address"
            },
            {
              "internalType": "address payable",
              "name": "from",
              "type": "address"
            },
            {
              "internalType": "bytes",
              "name": "data",
              "type": "bytes"
            },
            {
              "internalType": "uint256",
              "name": "deadline",
              "type": "uint256"
            },
            {
              "internalType": "uint256",
              "name": "compensation",
              "type": "uint256"
            },
            {
              "internalType": "uint256",
              "name": "gasLimit",
              "type": "uint256"
            },
            {
              "internalType": "uint256",
              "name": "chainId",
              "type": "uint256"
            },
            {
              "internalType": "address",
              "name": "relay",
              "type": "address"
            }
          ],
          "internalType": "struct RelayTxStruct.RelayTx",
          "name": "self",
          "type": "tuple"
        }
      ],
      "name": "computeRelayTxId",
      "outputs": [
        {
          "internalType": "bytes32",
          "name": "",
          "type": "bytes32"
        }
      ],
      "stateMutability": "pure",
      "type": "function"
    }
  ],
  "evm": {
    "bytecode": {
      "linkReferences": {},
      "object": "608060405234801561001057600080fd5b5061031b806100206000396000f3fe608060405234801561001057600080fd5b506004361061002b5760003560e01c80630c74dc6c14610030575b600080fd5b61004361003e366004610136565b610059565b60405161005091906102b5565b60405180910390f35b80516020808301516040808501516060860151608087015160a088015160c089015160e08a0151955160009961009399909897910161020e565b604051602081830303815290604052805190602001209050919050565b80356001600160a01b03811681146100c757600080fd5b92915050565b600082601f8301126100dd578081fd5b813567ffffffffffffffff8111156100f3578182fd5b610106601f8201601f19166020016102be565b915080825283602082850101111561011d57600080fd5b8060208401602084013760009082016020015292915050565b600060208284031215610147578081fd5b813567ffffffffffffffff8082111561015e578283fd5b610100918401808603831315610172578384fd5b61017b836102be565b61018587836100b0565b815261019487602084016100b0565b602082015260408201359350828411156101ac578485fd5b6101b8878584016100cd565b6040820152606082013560608201526080820135608082015260a082013560a082015260c082013560c08201526101f28760e084016100b0565b60e08201529695505050505050565b6001600160a01b03169052565b6001600160a01b03898116825288166020808301919091526101006040830181905288519083018190526000918291905b8183101561025e578a830181015185840161012001529182019161023f565b5080821115610271578261012082860101525b610120601f19601f830116850101925050508660608301528560808301528460a08301528360c08301526102a860e0830184610201565b9998505050505050505050565b90815260200190565b60405181810167ffffffffffffffff811182821017156102dd57600080fd5b60405291905056fea26469706673582212201b6791cf6a64594539d5e5989e6c28527f1b8fd35bc7d05cf95cec2051e6479464736f6c63430006020033",
      "opcodes": "PUSH1 0x80 PUSH1 0x40 MSTORE CALLVALUE DUP1 ISZERO PUSH2 0x10 JUMPI PUSH1 0x0 DUP1 REVERT JUMPDEST POP PUSH2 0x31B DUP1 PUSH2 0x20 PUSH1 0x0 CODECOPY PUSH1 0x0 RETURN INVALID PUSH1 0x80 PUSH1 0x40 MSTORE CALLVALUE DUP1 ISZERO PUSH2 0x10 JUMPI PUSH1 0x0 DUP1 REVERT JUMPDEST POP PUSH1 0x4 CALLDATASIZE LT PUSH2 0x2B JUMPI PUSH1 0x0 CALLDATALOAD PUSH1 0xE0 SHR DUP1 PUSH4 0xC74DC6C EQ PUSH2 0x30 JUMPI JUMPDEST PUSH1 0x0 DUP1 REVERT JUMPDEST PUSH2 0x43 PUSH2 0x3E CALLDATASIZE PUSH1 0x4 PUSH2 0x136 JUMP JUMPDEST PUSH2 0x59 JUMP JUMPDEST PUSH1 0x40 MLOAD PUSH2 0x50 SWAP2 SWAP1 PUSH2 0x2B5 JUMP JUMPDEST PUSH1 0x40 MLOAD DUP1 SWAP2 SUB SWAP1 RETURN JUMPDEST DUP1 MLOAD PUSH1 0x20 DUP1 DUP4 ADD MLOAD PUSH1 0x40 DUP1 DUP6 ADD MLOAD PUSH1 0x60 DUP7 ADD MLOAD PUSH1 0x80 DUP8 ADD MLOAD PUSH1 0xA0 DUP9 ADD MLOAD PUSH1 0xC0 DUP10 ADD MLOAD PUSH1 0xE0 DUP11 ADD MLOAD SWAP6 MLOAD PUSH1 0x0 SWAP10 PUSH2 0x93 SWAP10 SWAP1 SWAP9 SWAP8 SWAP2 ADD PUSH2 0x20E JUMP JUMPDEST PUSH1 0x40 MLOAD PUSH1 0x20 DUP2 DUP4 SUB SUB DUP2 MSTORE SWAP1 PUSH1 0x40 MSTORE DUP1 MLOAD SWAP1 PUSH1 0x20 ADD KECCAK256 SWAP1 POP SWAP2 SWAP1 POP JUMP JUMPDEST DUP1 CALLDATALOAD PUSH1 0x1 PUSH1 0x1 PUSH1 0xA0 SHL SUB DUP2 AND DUP2 EQ PUSH2 0xC7 JUMPI PUSH1 0x0 DUP1 REVERT JUMPDEST SWAP3 SWAP2 POP POP JUMP JUMPDEST PUSH1 0x0 DUP3 PUSH1 0x1F DUP4 ADD SLT PUSH2 0xDD JUMPI DUP1 DUP2 REVERT JUMPDEST DUP2 CALLDATALOAD PUSH8 0xFFFFFFFFFFFFFFFF DUP2 GT ISZERO PUSH2 0xF3 JUMPI DUP2 DUP3 REVERT JUMPDEST PUSH2 0x106 PUSH1 0x1F DUP3 ADD PUSH1 0x1F NOT AND PUSH1 0x20 ADD PUSH2 0x2BE JUMP JUMPDEST SWAP2 POP DUP1 DUP3 MSTORE DUP4 PUSH1 0x20 DUP3 DUP6 ADD ADD GT ISZERO PUSH2 0x11D JUMPI PUSH1 0x0 DUP1 REVERT JUMPDEST DUP1 PUSH1 0x20 DUP5 ADD PUSH1 0x20 DUP5 ADD CALLDATACOPY PUSH1 0x0 SWAP1 DUP3 ADD PUSH1 0x20 ADD MSTORE SWAP3 SWAP2 POP POP JUMP JUMPDEST PUSH1 0x0 PUSH1 0x20 DUP3 DUP5 SUB SLT ISZERO PUSH2 0x147 JUMPI DUP1 DUP2 REVERT JUMPDEST DUP2 CALLDATALOAD PUSH8 0xFFFFFFFFFFFFFFFF DUP1 DUP3 GT ISZERO PUSH2 0x15E JUMPI DUP3 DUP4 REVERT JUMPDEST PUSH2 0x100 SWAP2 DUP5 ADD DUP1 DUP7 SUB DUP4 SGT ISZERO PUSH2 0x172 JUMPI DUP4 DUP5 REVERT JUMPDEST PUSH2 0x17B DUP4 PUSH2 0x2BE JUMP JUMPDEST PUSH2 0x185 DUP8 DUP4 PUSH2 0xB0 JUMP JUMPDEST DUP2 MSTORE PUSH2 0x194 DUP8 PUSH1 0x20 DUP5 ADD PUSH2 0xB0 JUMP JUMPDEST PUSH1 0x20 DUP3 ADD MSTORE PUSH1 0x40 DUP3 ADD CALLDATALOAD SWAP4 POP DUP3 DUP5 GT ISZERO PUSH2 0x1AC JUMPI DUP5 DUP6 REVERT JUMPDEST PUSH2 0x1B8 DUP8 DUP6 DUP5 ADD PUSH2 0xCD JUMP JUMPDEST PUSH1 0x40 DUP3 ADD MSTORE PUSH1 0x60 DUP3 ADD CALLDATALOAD PUSH1 0x60 DUP3 ADD MSTORE PUSH1 0x80 DUP3 ADD CALLDATALOAD PUSH1 0x80 DUP3 ADD MSTORE PUSH1 0xA0 DUP3 ADD CALLDATALOAD PUSH1 0xA0 DUP3 ADD MSTORE PUSH1 0xC0 DUP3 ADD CALLDATALOAD PUSH1 0xC0 DUP3 ADD MSTORE PUSH2 0x1F2 DUP8 PUSH1 0xE0 DUP5 ADD PUSH2 0xB0 JUMP JUMPDEST PUSH1 0xE0 DUP3 ADD MSTORE SWAP7 SWAP6 POP POP POP POP POP POP JUMP JUMPDEST PUSH1 0x1 PUSH1 0x1 PUSH1 0xA0 SHL SUB AND SWAP1 MSTORE JUMP JUMPDEST PUSH1 0x1 PUSH1 0x1 PUSH1 0xA0 SHL SUB DUP10 DUP2 AND DUP3 MSTORE DUP9 AND PUSH1 0x20 DUP1 DUP4 ADD SWAP2 SWAP1 SWAP2 MSTORE PUSH2 0x100 PUSH1 0x40 DUP4 ADD DUP2 SWAP1 MSTORE DUP9 MLOAD SWAP1 DUP4 ADD DUP2 SWAP1 MSTORE PUSH1 0x0 SWAP2 DUP3 SWAP2 SWAP1 JUMPDEST DUP2 DUP4 LT ISZERO PUSH2 0x25E JUMPI DUP11 DUP4 ADD DUP2 ADD MLOAD DUP6 DUP5 ADD PUSH2 0x120 ADD MSTORE SWAP2 DUP3 ADD SWAP2 PUSH2 0x23F JUMP JUMPDEST POP DUP1 DUP3 GT ISZERO PUSH2 0x271 JUMPI DUP3 PUSH2 0x120 DUP3 DUP7 ADD ADD MSTORE JUMPDEST PUSH2 0x120 PUSH1 0x1F NOT PUSH1 0x1F DUP4 ADD AND DUP6 ADD ADD SWAP3 POP POP POP DUP7 PUSH1 0x60 DUP4 ADD MSTORE DUP6 PUSH1 0x80 DUP4 ADD MSTORE DUP5 PUSH1 0xA0 DUP4 ADD MSTORE DUP4 PUSH1 0xC0 DUP4 ADD MSTORE PUSH2 0x2A8 PUSH1 0xE0 DUP4 ADD DUP5 PUSH2 0x201 JUMP JUMPDEST SWAP10 SWAP9 POP POP POP POP POP POP POP POP POP JUMP JUMPDEST SWAP1 DUP2 MSTORE PUSH1 0x20 ADD SWAP1 JUMP JUMPDEST PUSH1 0x40 MLOAD DUP2 DUP2 ADD PUSH8 0xFFFFFFFFFFFFFFFF DUP2 GT DUP3 DUP3 LT OR ISZERO PUSH2 0x2DD JUMPI PUSH1 0x0 DUP1 REVERT JUMPDEST PUSH1 0x40 MSTORE SWAP2 SWAP1 POP JUMP INVALID LOG2 PUSH5 0x6970667358 0x22 SLT KECCAK256 SHL PUSH8 0x91CF6A64594539D5 0xE5 SWAP9 SWAP15 PUSH13 0x28527F1B8FD35BC7D05CF95CEC KECCAK256 MLOAD 0xE6 SELFBALANCE SWAP5 PUSH5 0x736F6C6343 STOP MOD MUL STOP CALLER "
    }
  },
  "interface": [
    {
      "inputs": [
        {
          "components": [
            {
              "internalType": "address",
              "name": "to",
              "type": "address"
            },
            {
              "internalType": "address payable",
              "name": "from",
              "type": "address"
            },
            {
              "internalType": "bytes",
              "name": "data",
              "type": "bytes"
            },
            {
              "internalType": "uint256",
              "name": "deadline",
              "type": "uint256"
            },
            {
              "internalType": "uint256",
              "name": "compensation",
              "type": "uint256"
            },
            {
              "internalType": "uint256",
              "name": "gasLimit",
              "type": "uint256"
            },
            {
              "internalType": "uint256",
              "name": "chainId",
              "type": "uint256"
            },
            {
              "internalType": "address",
              "name": "relay",
              "type": "address"
            }
          ],
          "internalType": "struct RelayTxStruct.RelayTx",
          "name": "self",
          "type": "tuple"
        }
      ],
      "name": "computeRelayTxId",
      "outputs": [
        {
          "internalType": "bytes32",
          "name": "",
          "type": "bytes32"
        }
      ],
      "stateMutability": "pure",
      "type": "function"
    }
  ]
}