{
  "abi": [
    {
      "constant": true,
      "inputs": [],
      "name": "forfeited",
      "outputs": [
        {
          "internalType": "bool",
          "name": "",
          "type": "bool"
        }
      ],
      "payable": false,
      "stateMutability": "view",
      "type": "function"
    },
    {
      "constant": false,
      "inputs": [
        {
          "components": [
            {
              "internalType": "address",
              "name": "to",
              "type": "address"
            },
            {
              "internalType": "address payable",
              "name": "from",
              "type": "address"
            },
            {
              "internalType": "bytes",
              "name": "data",
              "type": "bytes"
            },
            {
              "internalType": "uint256",
              "name": "deadline",
              "type": "uint256"
            },
            {
              "internalType": "uint256",
              "name": "refund",
              "type": "uint256"
            },
            {
              "internalType": "uint256",
              "name": "gasLimit",
              "type": "uint256"
            },
            {
              "internalType": "address",
              "name": "relay",
              "type": "address"
            }
          ],
          "internalType": "struct RelayTxStruct.RelayTx",
          "name": "_relayTx",
          "type": "tuple"
        },
        {
          "internalType": "bytes",
          "name": "_sig",
          "type": "bytes"
        }
      ],
      "name": "requestRefund",
      "outputs": [],
      "payable": false,
      "stateMutability": "nonpayable",
      "type": "function"
    },
    {
      "constant": true,
      "inputs": [
        {
          "internalType": "bytes32",
          "name": "",
          "type": "bytes32"
        }
      ],
      "name": "refunds",
      "outputs": [
        {
          "internalType": "enum RefundAdjudicator.RefundStatus",
          "name": "status",
          "type": "uint8"
        },
        {
          "internalType": "uint256",
          "name": "deadline",
          "type": "uint256"
        }
      ],
      "payable": false,
      "stateMutability": "view",
      "type": "function"
    },
    {
      "constant": true,
      "inputs": [
        {
          "components": [
            {
              "internalType": "address",
              "name": "to",
              "type": "address"
            },
            {
              "internalType": "address payable",
              "name": "from",
              "type": "address"
            },
            {
              "internalType": "bytes",
              "name": "data",
              "type": "bytes"
            },
            {
              "internalType": "uint256",
              "name": "deadline",
              "type": "uint256"
            },
            {
              "internalType": "uint256",
              "name": "refund",
              "type": "uint256"
            },
            {
              "internalType": "uint256",
              "name": "gasLimit",
              "type": "uint256"
            },
            {
              "internalType": "address",
              "name": "relay",
              "type": "address"
            }
          ],
          "internalType": "struct RelayTxStruct.RelayTx",
          "name": "self",
          "type": "tuple"
        }
      ],
      "name": "computeRelayTxId",
      "outputs": [
        {
          "internalType": "bytes32",
          "name": "",
          "type": "bytes32"
        }
      ],
      "payable": false,
      "stateMutability": "pure",
      "type": "function"
    },
    {
      "constant": true,
      "inputs": [],
      "name": "refundPeriod",
      "outputs": [
        {
          "internalType": "uint256",
          "name": "",
          "type": "uint256"
        }
      ],
      "payable": false,
      "stateMutability": "view",
      "type": "function"
    },
    {
      "constant": true,
      "inputs": [],
      "name": "relay",
      "outputs": [
        {
          "internalType": "contract Relay",
          "name": "",
          "type": "address"
        }
      ],
      "payable": false,
      "stateMutability": "view",
      "type": "function"
    },
    {
      "constant": false,
      "inputs": [
        {
          "components": [
            {
              "internalType": "address",
              "name": "to",
              "type": "address"
            },
            {
              "internalType": "address payable",
              "name": "from",
              "type": "address"
            },
            {
              "internalType": "bytes",
              "name": "data",
              "type": "bytes"
            },
            {
              "internalType": "uint256",
              "name": "deadline",
              "type": "uint256"
            },
            {
              "internalType": "uint256",
              "name": "refund",
              "type": "uint256"
            },
            {
              "internalType": "uint256",
              "name": "gasLimit",
              "type": "uint256"
            },
            {
              "internalType": "address",
              "name": "relay",
              "type": "address"
            }
          ],
          "internalType": "struct RelayTxStruct.RelayTx",
          "name": "_relayTx",
          "type": "tuple"
        }
      ],
      "name": "issueRefund",
      "outputs": [],
      "payable": true,
      "stateMutability": "payable",
      "type": "function"
    },
    {
      "constant": false,
      "inputs": [
        {
          "components": [
            {
              "internalType": "address",
              "name": "to",
              "type": "address"
            },
            {
              "internalType": "address payable",
              "name": "from",
              "type": "address"
            },
            {
              "internalType": "bytes",
              "name": "data",
              "type": "bytes"
            },
            {
              "internalType": "uint256",
              "name": "deadline",
              "type": "uint256"
            },
            {
              "internalType": "uint256",
              "name": "refund",
              "type": "uint256"
            },
            {
              "internalType": "uint256",
              "name": "gasLimit",
              "type": "uint256"
            },
            {
              "internalType": "address",
              "name": "relay",
              "type": "address"
            }
          ],
          "internalType": "struct RelayTxStruct.RelayTx",
          "name": "_relayTx",
          "type": "tuple"
        }
      ],
      "name": "withdrawRefund",
      "outputs": [],
      "payable": false,
      "stateMutability": "nonpayable",
      "type": "function"
    },
    {
      "constant": false,
      "inputs": [
        {
          "components": [
            {
              "internalType": "address",
              "name": "to",
              "type": "address"
            },
            {
              "internalType": "address payable",
              "name": "from",
              "type": "address"
            },
            {
              "internalType": "bytes",
              "name": "data",
              "type": "bytes"
            },
            {
              "internalType": "uint256",
              "name": "deadline",
              "type": "uint256"
            },
            {
              "internalType": "uint256",
              "name": "refund",
              "type": "uint256"
            },
            {
              "internalType": "uint256",
              "name": "gasLimit",
              "type": "uint256"
            },
            {
              "internalType": "address",
              "name": "relay",
              "type": "address"
            }
          ],
          "internalType": "struct RelayTxStruct.RelayTx",
          "name": "_relayTx",
          "type": "tuple"
        }
      ],
      "name": "issueForfeit",
      "outputs": [],
      "payable": false,
      "stateMutability": "nonpayable",
      "type": "function"
    },
    {
      "inputs": [
        {
          "internalType": "contract Relay",
          "name": "_relay",
          "type": "address"
        },
        {
          "internalType": "address",
          "name": "_receiptSigner",
          "type": "address"
        },
        {
          "internalType": "uint256",
          "name": "_refundPeriod",
          "type": "uint256"
        }
      ],
      "payable": false,
      "stateMutability": "nonpayable",
      "type": "constructor"
    },
    {
      "anonymous": false,
      "inputs": [
        {
          "indexed": true,
          "internalType": "bytes32",
          "name": "relayTxId",
          "type": "bytes32"
        },
        {
          "indexed": false,
          "internalType": "address",
          "name": "user",
          "type": "address"
        },
        {
          "indexed": false,
          "internalType": "uint256",
          "name": "refund",
          "type": "uint256"
        },
        {
          "indexed": false,
          "internalType": "uint256",
          "name": "deadline",
          "type": "uint256"
        }
      ],
      "name": "RequestRefund",
      "type": "event"
    },
    {
      "anonymous": false,
      "inputs": [
        {
          "indexed": true,
          "internalType": "bytes32",
          "name": "relayTxId",
          "type": "bytes32"
        },
        {
          "indexed": false,
          "internalType": "address",
          "name": "relayer",
          "type": "address"
        },
        {
          "indexed": false,
          "internalType": "address",
          "name": "user",
          "type": "address"
        },
        {
          "indexed": false,
          "internalType": "uint256",
          "name": "refund",
          "type": "uint256"
        }
      ],
      "name": "RefundIssued",
      "type": "event"
    },
    {
      "anonymous": false,
      "inputs": [],
      "name": "ForfeitIssued",
      "type": "event"
    }
  ],
  "evm": {
    "bytecode": {
      "linkReferences": {},
      "object": "60806040523480156200001157600080fd5b5060405162001ea938038062001ea983398181016040526200003791908101906200010e565b82600260006101000a81548173ffffffffffffffffffffffffffffffffffffffff021916908373ffffffffffffffffffffffffffffffffffffffff1602179055508060048190555081600360006101000a81548173ffffffffffffffffffffffffffffffffffffffff021916908373ffffffffffffffffffffffffffffffffffffffff16021790555050505062000218565b600081519050620000da81620001ca565b92915050565b600081519050620000f181620001e4565b92915050565b6000815190506200010881620001fe565b92915050565b6000806000606084860312156200012457600080fd5b60006200013486828701620000e0565b93505060206200014786828701620000c9565b92505060406200015a86828701620000f7565b9150509250925092565b60006200017182620001a0565b9050919050565b60006200018582620001a0565b9050919050565b6000620001998262000178565b9050919050565b600073ffffffffffffffffffffffffffffffffffffffff82169050919050565b6000819050919050565b620001d58162000164565b8114620001e157600080fd5b50565b620001ef816200018c565b8114620001fb57600080fd5b50565b6200020981620001c0565b81146200021557600080fd5b50565b611c8180620002286000396000f3fe6080604052600436106100865760003560e01c8063a6a3b5b411610059578063a6a3b5b41461015a578063b59589d114610185578063c312a484146101b0578063ecb1af7d146101cc578063ee527ff6146101f557610086565b806367a348441461008b578063694ee740146100b65780638a172753146100df5780639e0507fd1461011d575b600080fd5b34801561009757600080fd5b506100a061021e565b6040516100ad919061173a565b60405180910390f35b3480156100c257600080fd5b506100dd60048036036100d89190810190610fe2565b610230565b005b3480156100eb57600080fd5b5061010660048036036101019190810190610f78565b61067e565b6040516101149291906117d0565b60405180910390f35b34801561012957600080fd5b50610144600480360361013f9190810190610fa1565b6106af565b6040516101519190611755565b60405180910390f35b34801561016657600080fd5b5061016f610707565b60405161017c9190611979565b60405180910390f35b34801561019157600080fd5b5061019a61070d565b6040516101a791906117b5565b60405180910390f35b6101ca60048036036101c59190810190610fa1565b610733565b005b3480156101d857600080fd5b506101f360048036036101ee9190810190610fa1565b61087e565b005b34801561020157600080fd5b5061021c60048036036102179190810190610fa1565b610998565b005b6000809054906101000a900460ff1681565b600260009054906101000a900473ffffffffffffffffffffffffffffffffffffffff1673ffffffffffffffffffffffffffffffffffffffff168260c0015173ffffffffffffffffffffffffffffffffffffffff16146102c4576040517f08c379a00000000000000000000000000000000000000000000000000000000081526004016102bb906118d9565b60405180910390fd5b8160600151431161030a576040517f08c379a000000000000000000000000000000000000000000000000000000000815260040161030190611919565b60405180910390fd5b600082608001511415610352576040517f08c379a000000000000000000000000000000000000000000000000000000000815260040161034990611959565b60405180910390fd5b600060028060009054906101000a900473ffffffffffffffffffffffffffffffffffffffff1673ffffffffffffffffffffffffffffffffffffffff166391ad27b46040518163ffffffff1660e01b815260040160206040518083038186803b1580156103bd57600080fd5b505afa1580156103d1573d6000803e3d6000fd5b505050506040513d601f19601f820116820180604052506103f5919081019061104e565b816103fc57fe5b049050438184606001510111610447576040517f08c379a000000000000000000000000000000000000000000000000000000000815260040161043e90611879565b60405180910390fd5b6000610452846106af565b90506000600381111561046157fe5b6001600083815260200190815260200160002060000160009054906101000a900460ff16600381111561049057fe5b146104d0576040517f08c379a00000000000000000000000000000000000000000000000000000000081526004016104c790611819565b60405180910390fd5b6104eb836104dd83610ac3565b610af390919063ffffffff16565b73ffffffffffffffffffffffffffffffffffffffff16600360009054906101000a900473ffffffffffffffffffffffffffffffffffffffff1673ffffffffffffffffffffffffffffffffffffffff161461057a576040517f08c379a000000000000000000000000000000000000000000000000000000000815260040161057190611939565b60405180910390fd5b610588818560600151610bdf565b156105c8576040517f08c379a00000000000000000000000000000000000000000000000000000000081526004016105bf90611839565b60405180910390fd5b600180600083815260200190815260200160002060000160006101000a81548160ff021916908360038111156105fa57fe5b021790555060045443016001600083815260200190815260200160002060010181905550807fd3da7170d8f421786f6e70ccb5d9c4a5e7e9e11ad0259765f3d5a48d9e2856c28560200151866080015160016000868152602001908152602001600020600101546040516106709392919061168d565b60405180910390a250505050565b60016020528060005260406000206000915090508060000160009054906101000a900460ff16908060010154905082565b6000816000015182602001518360400151846060015185608001518660a001518760c001516040516020016106ea97969594939291906116c4565b604051602081830303815290604052805190602001209050919050565b60045481565b600260009054906101000a900473ffffffffffffffffffffffffffffffffffffffff1681565b600061073e826106af565b90506001600381111561074d57fe5b6001600083815260200190815260200160002060000160009054906101000a900460ff16600381111561077c57fe5b146107bc576040517f08c379a00000000000000000000000000000000000000000000000000000000081526004016107b3906118f9565b60405180910390fd5b34826080015114610802576040517f08c379a00000000000000000000000000000000000000000000000000000000081526004016107f990611899565b60405180910390fd5b60026001600083815260200190815260200160002060000160006101000a81548160ff0219169083600381111561083557fe5b0217905550807f3950574a207e67e1018824bc0637c21b2a6777df9460813d666b4198cbe2365d3384602001513460405161087293929190611656565b60405180910390a25050565b6000610889826106af565b90506002600381111561089857fe5b6001600083815260200190815260200160002060000160009054906101000a900460ff1660038111156108c757fe5b14610907576040517f08c379a00000000000000000000000000000000000000000000000000000000081526004016108fe906117f9565b60405180910390fd5b60036001600083815260200190815260200160002060000160006101000a81548160ff0219169083600381111561093a57fe5b0217905550600082608001519050826020015173ffffffffffffffffffffffffffffffffffffffff166108fc829081150290604051600060405180830381858888f19350505050158015610992573d6000803e3d6000fd5b50505050565b60006109a3826106af565b9050600160038111156109b257fe5b6001600083815260200190815260200160002060000160009054906101000a900460ff1660038111156109e157fe5b14610a21576040517f08c379a0000000000000000000000000000000000000000000000000000000008152600401610a18906118b9565b60405180910390fd5b60016000828152602001908152602001600020600101544311610a79576040517f08c379a0000000000000000000000000000000000000000000000000000000008152600401610a7090611859565b60405180910390fd5b60016000806101000a81548160ff0219169083151502179055507fbf49dc0fa3525dc307a5cc4f836c0fead74f7e10d9a6393117061b0a7b97400560405160405180910390a15050565b600081604051602001610ad69190611630565b604051602081830303815290604052805190602001209050919050565b60006041825114610b075760009050610bd9565b60008060006020850151925060408501519150606085015160001a90507f7fffffffffffffffffffffffffffffff5d576e7357a4501ddfe92f46681b20a08260001c1115610b5b5760009350505050610bd9565b601b8160ff1614158015610b735750601c8160ff1614155b15610b845760009350505050610bd9565b60018682858560405160008152602001604052604051610ba79493929190611770565b6020604051602081039080840390855afa158015610bc9573d6000803e3d6000fd5b5050506020604051035193505050505b92915050565b600080600260009054906101000a900473ffffffffffffffffffffffffffffffffffffffff1673ffffffffffffffffffffffffffffffffffffffff1663a63d6e446040518163ffffffff1660e01b815260040160206040518083038186803b158015610c4a57600080fd5b505afa158015610c5e573d6000803e3d6000fd5b505050506040513d601f19601f82011682018060405250610c82919081019061104e565b905060008090505b81811015610d92576000600260009054906101000a900473ffffffffffffffffffffffffffffffffffffffff1673ffffffffffffffffffffffffffffffffffffffff16637a32998983600260009054906101000a900473ffffffffffffffffffffffffffffffffffffffff16896040518463ffffffff1660e01b8152600401610d1593929190611994565b60206040518083038186803b158015610d2d57600080fd5b505afa158015610d41573d6000803e3d6000fd5b505050506040513d601f19601f82011682018060405250610d65919081019061104e565b90506000811115610d8457808510610d835760019350505050610d99565b5b508080600101915050610c8a565b5060009150505b92915050565b600081359050610dae81611be2565b92915050565b600081359050610dc381611bf9565b92915050565b600081359050610dd881611c10565b92915050565b600082601f830112610def57600080fd5b8135610e02610dfd826119f8565b6119cb565b91508082526020830160208301858383011115610e1e57600080fd5b610e29838284611b78565b50505092915050565b600082601f830112610e4357600080fd5b8135610e56610e5182611a24565b6119cb565b91508082526020830160208301858383011115610e7257600080fd5b610e7d838284611b78565b50505092915050565b600060e08284031215610e9857600080fd5b610ea260e06119cb565b90506000610eb284828501610d9f565b6000830152506020610ec684828501610db4565b602083015250604082013567ffffffffffffffff811115610ee657600080fd5b610ef284828501610dde565b6040830152506060610f0684828501610f4e565b6060830152506080610f1a84828501610f4e565b60808301525060a0610f2e84828501610f4e565b60a08301525060c0610f4284828501610d9f565b60c08301525092915050565b600081359050610f5d81611c27565b92915050565b600081519050610f7281611c27565b92915050565b600060208284031215610f8a57600080fd5b6000610f9884828501610dc9565b91505092915050565b600060208284031215610fb357600080fd5b600082013567ffffffffffffffff811115610fcd57600080fd5b610fd984828501610e86565b91505092915050565b60008060408385031215610ff557600080fd5b600083013567ffffffffffffffff81111561100f57600080fd5b61101b85828601610e86565b925050602083013567ffffffffffffffff81111561103857600080fd5b61104485828601610e32565b9150509250929050565b60006020828403121561106057600080fd5b600061106e84828501610f63565b91505092915050565b61108081611b0c565b82525050565b61108f81611a9a565b82525050565b61109e81611a88565b82525050565b6110ad81611aac565b82525050565b6110bc81611ab8565b82525050565b6110d36110ce82611ab8565b611bba565b82525050565b60006110e482611a50565b6110ee8185611a5b565b93506110fe818560208601611b87565b61110781611bc4565b840191505092915050565b61111b81611b1e565b82525050565b61112a81611b42565b82525050565b600061113d602583611a6c565b91507f526566756e64207265636f7264206d75737420626520696e20524546554e442060008301527f6d6f64652e0000000000000000000000000000000000000000000000000000006020830152604082019050919050565b60006111a3601c83611a6c565b91507f43616e6e6f74207265717565737420726566756e642074776963652e000000006000830152602082019050919050565b60006111e3601c83611a7d565b91507f19457468657265756d205369676e6564204d6573736167653a0a3332000000006000830152601c82019050919050565b6000611223603583611a6c565b91507f4e6f20726566756e642061732072656c6179207472616e73616374696f6e207760008301527f617320636f6d706c6574656420696e2074696d652e00000000000000000000006020830152604082019050919050565b6000611289602583611a6c565b91507f446561646c696e6520666f7220726566756e64206d757374206861766520706160008301527f737365642e0000000000000000000000000000000000000000000000000000006020830152604082019050919050565b60006112ef602b83611a6c565b91507f5265636f7264206d6179206e6f206c6f6e67657220657869737420696e20746860008301527f652072656769737472792e0000000000000000000000000000000000000000006020830152604082019050919050565b6000611355602483611a6c565b91507f52656c61796572206d75737420726566756e642074686520657861637420766160008301527f6c75652e000000000000000000000000000000000000000000000000000000006020830152604082019050919050565b60006113bb602383611a6c565b91507f526566756e64537461747573206d757374207374696c6c2062652050454e444960008301527f4e472e00000000000000000000000000000000000000000000000000000000006020830152604082019050919050565b6000611421602a83611a6c565b91507f4d69736d61746368696e672072656c6179206164647265737320696e2074686560008301527f2072656c61792074782e000000000000000000000000000000000000000000006020830152604082019050919050565b6000611487602683611a6c565b91507f526566756e64207265636f7264206d75737420626520696e2050454e44494e4760008301527f206d6f64652e00000000000000000000000000000000000000000000000000006020830152604082019050919050565b60006114ed602d83611a6c565b91507f5468652072656c61796572207374696c6c206861732074696d6520746f20666960008301527f6e69736820746865206a6f622e000000000000000000000000000000000000006020830152604082019050919050565b6000611553602183611a6c565b91507f52656c6179657220646964206e6f74207369676e20746865207265636569707460008301527f2e000000000000000000000000000000000000000000000000000000000000006020830152604082019050919050565b60006115b9602b83611a6c565b91507f4e6f20726566756e642070726f6d6973656420746f20637573746f6d6572206960008301527f6e2072656c61792074782e0000000000000000000000000000000000000000006020830152604082019050919050565b61161b81611af5565b82525050565b61162a81611aff565b82525050565b600061163b826111d6565b915061164782846110c2565b60208201915081905092915050565b600060608201905061166b6000830186611077565b6116786020830185611077565b6116856040830184611612565b949350505050565b60006060820190506116a26000830186611077565b6116af6020830185611612565b6116bc6040830184611612565b949350505050565b600060e0820190506116d9600083018a611095565b6116e66020830189611086565b81810360408301526116f881886110d9565b90506117076060830187611612565b6117146080830186611612565b61172160a0830185611612565b61172e60c0830184611095565b98975050505050505050565b600060208201905061174f60008301846110a4565b92915050565b600060208201905061176a60008301846110b3565b92915050565b600060808201905061178560008301876110b3565b6117926020830186611621565b61179f60408301856110b3565b6117ac60608301846110b3565b95945050505050565b60006020820190506117ca6000830184611112565b92915050565b60006040820190506117e56000830185611121565b6117f26020830184611612565b9392505050565b6000602082019050818103600083015261181281611130565b9050919050565b6000602082019050818103600083015261183281611196565b9050919050565b6000602082019050818103600083015261185281611216565b9050919050565b600060208201905081810360008301526118728161127c565b9050919050565b60006020820190508181036000830152611892816112e2565b9050919050565b600060208201905081810360008301526118b281611348565b9050919050565b600060208201905081810360008301526118d2816113ae565b9050919050565b600060208201905081810360008301526118f281611414565b9050919050565b600060208201905081810360008301526119128161147a565b9050919050565b60006020820190508181036000830152611932816114e0565b9050919050565b6000602082019050818103600083015261195281611546565b9050919050565b60006020820190508181036000830152611972816115ac565b9050919050565b600060208201905061198e6000830184611612565b92915050565b60006060820190506119a96000830186611612565b6119b66020830185611077565b6119c360408301846110b3565b949350505050565b6000604051905081810181811067ffffffffffffffff821117156119ee57600080fd5b8060405250919050565b600067ffffffffffffffff821115611a0f57600080fd5b601f19601f8301169050602081019050919050565b600067ffffffffffffffff821115611a3b57600080fd5b601f19601f8301169050602081019050919050565b600081519050919050565b600082825260208201905092915050565b600082825260208201905092915050565b600081905092915050565b6000611a9382611ad5565b9050919050565b6000611aa582611ad5565b9050919050565b60008115159050919050565b6000819050919050565b6000819050611ad082611bd5565b919050565b600073ffffffffffffffffffffffffffffffffffffffff82169050919050565b6000819050919050565b600060ff82169050919050565b6000611b1782611b54565b9050919050565b6000611b2982611b30565b9050919050565b6000611b3b82611ad5565b9050919050565b6000611b4d82611ac2565b9050919050565b6000611b5f82611b66565b9050919050565b6000611b7182611ad5565b9050919050565b82818337600083830152505050565b60005b83811015611ba5578082015181840152602081019050611b8a565b83811115611bb4576000848401525b50505050565b6000819050919050565b6000601f19601f8301169050919050565b60048110611bdf57fe5b50565b611beb81611a88565b8114611bf657600080fd5b50565b611c0281611a9a565b8114611c0d57600080fd5b50565b611c1981611ab8565b8114611c2457600080fd5b50565b611c3081611af5565b8114611c3b57600080fd5b5056fea365627a7a72315820d6ddd86f13596b1d2a329e2d747f54442ab9f7ad101935223d700ad9572cbfe86c6578706572696d656e74616cf564736f6c634300050b0040",
      "opcodes": "PUSH1 0x80 PUSH1 0x40 MSTORE CALLVALUE DUP1 ISZERO PUSH3 0x11 JUMPI PUSH1 0x0 DUP1 REVERT JUMPDEST POP PUSH1 0x40 MLOAD PUSH3 0x1EA9 CODESIZE SUB DUP1 PUSH3 0x1EA9 DUP4 CODECOPY DUP2 DUP2 ADD PUSH1 0x40 MSTORE PUSH3 0x37 SWAP2 SWAP1 DUP2 ADD SWAP1 PUSH3 0x10E JUMP JUMPDEST DUP3 PUSH1 0x2 PUSH1 0x0 PUSH2 0x100 EXP DUP2 SLOAD DUP2 PUSH20 0xFFFFFFFFFFFFFFFFFFFFFFFFFFFFFFFFFFFFFFFF MUL NOT AND SWAP1 DUP4 PUSH20 0xFFFFFFFFFFFFFFFFFFFFFFFFFFFFFFFFFFFFFFFF AND MUL OR SWAP1 SSTORE POP DUP1 PUSH1 0x4 DUP2 SWAP1 SSTORE POP DUP2 PUSH1 0x3 PUSH1 0x0 PUSH2 0x100 EXP DUP2 SLOAD DUP2 PUSH20 0xFFFFFFFFFFFFFFFFFFFFFFFFFFFFFFFFFFFFFFFF MUL NOT AND SWAP1 DUP4 PUSH20 0xFFFFFFFFFFFFFFFFFFFFFFFFFFFFFFFFFFFFFFFF AND MUL OR SWAP1 SSTORE POP POP POP POP PUSH3 0x218 JUMP JUMPDEST PUSH1 0x0 DUP2 MLOAD SWAP1 POP PUSH3 0xDA DUP2 PUSH3 0x1CA JUMP JUMPDEST SWAP3 SWAP2 POP POP JUMP JUMPDEST PUSH1 0x0 DUP2 MLOAD SWAP1 POP PUSH3 0xF1 DUP2 PUSH3 0x1E4 JUMP JUMPDEST SWAP3 SWAP2 POP POP JUMP JUMPDEST PUSH1 0x0 DUP2 MLOAD SWAP1 POP PUSH3 0x108 DUP2 PUSH3 0x1FE JUMP JUMPDEST SWAP3 SWAP2 POP POP JUMP JUMPDEST PUSH1 0x0 DUP1 PUSH1 0x0 PUSH1 0x60 DUP5 DUP7 SUB SLT ISZERO PUSH3 0x124 JUMPI PUSH1 0x0 DUP1 REVERT JUMPDEST PUSH1 0x0 PUSH3 0x134 DUP7 DUP3 DUP8 ADD PUSH3 0xE0 JUMP JUMPDEST SWAP4 POP POP PUSH1 0x20 PUSH3 0x147 DUP7 DUP3 DUP8 ADD PUSH3 0xC9 JUMP JUMPDEST SWAP3 POP POP PUSH1 0x40 PUSH3 0x15A DUP7 DUP3 DUP8 ADD PUSH3 0xF7 JUMP JUMPDEST SWAP2 POP POP SWAP3 POP SWAP3 POP SWAP3 JUMP JUMPDEST PUSH1 0x0 PUSH3 0x171 DUP3 PUSH3 0x1A0 JUMP JUMPDEST SWAP1 POP SWAP2 SWAP1 POP JUMP JUMPDEST PUSH1 0x0 PUSH3 0x185 DUP3 PUSH3 0x1A0 JUMP JUMPDEST SWAP1 POP SWAP2 SWAP1 POP JUMP JUMPDEST PUSH1 0x0 PUSH3 0x199 DUP3 PUSH3 0x178 JUMP JUMPDEST SWAP1 POP SWAP2 SWAP1 POP JUMP JUMPDEST PUSH1 0x0 PUSH20 0xFFFFFFFFFFFFFFFFFFFFFFFFFFFFFFFFFFFFFFFF DUP3 AND SWAP1 POP SWAP2 SWAP1 POP JUMP JUMPDEST PUSH1 0x0 DUP2 SWAP1 POP SWAP2 SWAP1 POP JUMP JUMPDEST PUSH3 0x1D5 DUP2 PUSH3 0x164 JUMP JUMPDEST DUP2 EQ PUSH3 0x1E1 JUMPI PUSH1 0x0 DUP1 REVERT JUMPDEST POP JUMP JUMPDEST PUSH3 0x1EF DUP2 PUSH3 0x18C JUMP JUMPDEST DUP2 EQ PUSH3 0x1FB JUMPI PUSH1 0x0 DUP1 REVERT JUMPDEST POP JUMP JUMPDEST PUSH3 0x209 DUP2 PUSH3 0x1C0 JUMP JUMPDEST DUP2 EQ PUSH3 0x215 JUMPI PUSH1 0x0 DUP1 REVERT JUMPDEST POP JUMP JUMPDEST PUSH2 0x1C81 DUP1 PUSH3 0x228 PUSH1 0x0 CODECOPY PUSH1 0x0 RETURN INVALID PUSH1 0x80 PUSH1 0x40 MSTORE PUSH1 0x4 CALLDATASIZE LT PUSH2 0x86 JUMPI PUSH1 0x0 CALLDATALOAD PUSH1 0xE0 SHR DUP1 PUSH4 0xA6A3B5B4 GT PUSH2 0x59 JUMPI DUP1 PUSH4 0xA6A3B5B4 EQ PUSH2 0x15A JUMPI DUP1 PUSH4 0xB59589D1 EQ PUSH2 0x185 JUMPI DUP1 PUSH4 0xC312A484 EQ PUSH2 0x1B0 JUMPI DUP1 PUSH4 0xECB1AF7D EQ PUSH2 0x1CC JUMPI DUP1 PUSH4 0xEE527FF6 EQ PUSH2 0x1F5 JUMPI PUSH2 0x86 JUMP JUMPDEST DUP1 PUSH4 0x67A34844 EQ PUSH2 0x8B JUMPI DUP1 PUSH4 0x694EE740 EQ PUSH2 0xB6 JUMPI DUP1 PUSH4 0x8A172753 EQ PUSH2 0xDF JUMPI DUP1 PUSH4 0x9E0507FD EQ PUSH2 0x11D JUMPI JUMPDEST PUSH1 0x0 DUP1 REVERT JUMPDEST CALLVALUE DUP1 ISZERO PUSH2 0x97 JUMPI PUSH1 0x0 DUP1 REVERT JUMPDEST POP PUSH2 0xA0 PUSH2 0x21E JUMP JUMPDEST PUSH1 0x40 MLOAD PUSH2 0xAD SWAP2 SWAP1 PUSH2 0x173A JUMP JUMPDEST PUSH1 0x40 MLOAD DUP1 SWAP2 SUB SWAP1 RETURN JUMPDEST CALLVALUE DUP1 ISZERO PUSH2 0xC2 JUMPI PUSH1 0x0 DUP1 REVERT JUMPDEST POP PUSH2 0xDD PUSH1 0x4 DUP1 CALLDATASIZE SUB PUSH2 0xD8 SWAP2 SWAP1 DUP2 ADD SWAP1 PUSH2 0xFE2 JUMP JUMPDEST PUSH2 0x230 JUMP JUMPDEST STOP JUMPDEST CALLVALUE DUP1 ISZERO PUSH2 0xEB JUMPI PUSH1 0x0 DUP1 REVERT JUMPDEST POP PUSH2 0x106 PUSH1 0x4 DUP1 CALLDATASIZE SUB PUSH2 0x101 SWAP2 SWAP1 DUP2 ADD SWAP1 PUSH2 0xF78 JUMP JUMPDEST PUSH2 0x67E JUMP JUMPDEST PUSH1 0x40 MLOAD PUSH2 0x114 SWAP3 SWAP2 SWAP1 PUSH2 0x17D0 JUMP JUMPDEST PUSH1 0x40 MLOAD DUP1 SWAP2 SUB SWAP1 RETURN JUMPDEST CALLVALUE DUP1 ISZERO PUSH2 0x129 JUMPI PUSH1 0x0 DUP1 REVERT JUMPDEST POP PUSH2 0x144 PUSH1 0x4 DUP1 CALLDATASIZE SUB PUSH2 0x13F SWAP2 SWAP1 DUP2 ADD SWAP1 PUSH2 0xFA1 JUMP JUMPDEST PUSH2 0x6AF JUMP JUMPDEST PUSH1 0x40 MLOAD PUSH2 0x151 SWAP2 SWAP1 PUSH2 0x1755 JUMP JUMPDEST PUSH1 0x40 MLOAD DUP1 SWAP2 SUB SWAP1 RETURN JUMPDEST CALLVALUE DUP1 ISZERO PUSH2 0x166 JUMPI PUSH1 0x0 DUP1 REVERT JUMPDEST POP PUSH2 0x16F PUSH2 0x707 JUMP JUMPDEST PUSH1 0x40 MLOAD PUSH2 0x17C SWAP2 SWAP1 PUSH2 0x1979 JUMP JUMPDEST PUSH1 0x40 MLOAD DUP1 SWAP2 SUB SWAP1 RETURN JUMPDEST CALLVALUE DUP1 ISZERO PUSH2 0x191 JUMPI PUSH1 0x0 DUP1 REVERT JUMPDEST POP PUSH2 0x19A PUSH2 0x70D JUMP JUMPDEST PUSH1 0x40 MLOAD PUSH2 0x1A7 SWAP2 SWAP1 PUSH2 0x17B5 JUMP JUMPDEST PUSH1 0x40 MLOAD DUP1 SWAP2 SUB SWAP1 RETURN JUMPDEST PUSH2 0x1CA PUSH1 0x4 DUP1 CALLDATASIZE SUB PUSH2 0x1C5 SWAP2 SWAP1 DUP2 ADD SWAP1 PUSH2 0xFA1 JUMP JUMPDEST PUSH2 0x733 JUMP JUMPDEST STOP JUMPDEST CALLVALUE DUP1 ISZERO PUSH2 0x1D8 JUMPI PUSH1 0x0 DUP1 REVERT JUMPDEST POP PUSH2 0x1F3 PUSH1 0x4 DUP1 CALLDATASIZE SUB PUSH2 0x1EE SWAP2 SWAP1 DUP2 ADD SWAP1 PUSH2 0xFA1 JUMP JUMPDEST PUSH2 0x87E JUMP JUMPDEST STOP JUMPDEST CALLVALUE DUP1 ISZERO PUSH2 0x201 JUMPI PUSH1 0x0 DUP1 REVERT JUMPDEST POP PUSH2 0x21C PUSH1 0x4 DUP1 CALLDATASIZE SUB PUSH2 0x217 SWAP2 SWAP1 DUP2 ADD SWAP1 PUSH2 0xFA1 JUMP JUMPDEST PUSH2 0x998 JUMP JUMPDEST STOP JUMPDEST PUSH1 0x0 DUP1 SWAP1 SLOAD SWAP1 PUSH2 0x100 EXP SWAP1 DIV PUSH1 0xFF AND DUP2 JUMP JUMPDEST PUSH1 0x2 PUSH1 0x0 SWAP1 SLOAD SWAP1 PUSH2 0x100 EXP SWAP1 DIV PUSH20 0xFFFFFFFFFFFFFFFFFFFFFFFFFFFFFFFFFFFFFFFF AND PUSH20 0xFFFFFFFFFFFFFFFFFFFFFFFFFFFFFFFFFFFFFFFF AND DUP3 PUSH1 0xC0 ADD MLOAD PUSH20 0xFFFFFFFFFFFFFFFFFFFFFFFFFFFFFFFFFFFFFFFF AND EQ PUSH2 0x2C4 JUMPI PUSH1 0x40 MLOAD PUSH32 0x8C379A000000000000000000000000000000000000000000000000000000000 DUP2 MSTORE PUSH1 0x4 ADD PUSH2 0x2BB SWAP1 PUSH2 0x18D9 JUMP JUMPDEST PUSH1 0x40 MLOAD DUP1 SWAP2 SUB SWAP1 REVERT JUMPDEST DUP2 PUSH1 0x60 ADD MLOAD NUMBER GT PUSH2 0x30A JUMPI PUSH1 0x40 MLOAD PUSH32 0x8C379A000000000000000000000000000000000000000000000000000000000 DUP2 MSTORE PUSH1 0x4 ADD PUSH2 0x301 SWAP1 PUSH2 0x1919 JUMP JUMPDEST PUSH1 0x40 MLOAD DUP1 SWAP2 SUB SWAP1 REVERT JUMPDEST PUSH1 0x0 DUP3 PUSH1 0x80 ADD MLOAD EQ ISZERO PUSH2 0x352 JUMPI PUSH1 0x40 MLOAD PUSH32 0x8C379A000000000000000000000000000000000000000000000000000000000 DUP2 MSTORE PUSH1 0x4 ADD PUSH2 0x349 SWAP1 PUSH2 0x1959 JUMP JUMPDEST PUSH1 0x40 MLOAD DUP1 SWAP2 SUB SWAP1 REVERT JUMPDEST PUSH1 0x0 PUSH1 0x2 DUP1 PUSH1 0x0 SWAP1 SLOAD SWAP1 PUSH2 0x100 EXP SWAP1 DIV PUSH20 0xFFFFFFFFFFFFFFFFFFFFFFFFFFFFFFFFFFFFFFFF AND PUSH20 0xFFFFFFFFFFFFFFFFFFFFFFFFFFFFFFFFFFFFFFFF AND PUSH4 0x91AD27B4 PUSH1 0x40 MLOAD DUP2 PUSH4 0xFFFFFFFF AND PUSH1 0xE0 SHL DUP2 MSTORE PUSH1 0x4 ADD PUSH1 0x20 PUSH1 0x40 MLOAD DUP1 DUP4 SUB DUP2 DUP7 DUP1 EXTCODESIZE ISZERO DUP1 ISZERO PUSH2 0x3BD JUMPI PUSH1 0x0 DUP1 REVERT JUMPDEST POP GAS STATICCALL ISZERO DUP1 ISZERO PUSH2 0x3D1 JUMPI RETURNDATASIZE PUSH1 0x0 DUP1 RETURNDATACOPY RETURNDATASIZE PUSH1 0x0 REVERT JUMPDEST POP POP POP POP PUSH1 0x40 MLOAD RETURNDATASIZE PUSH1 0x1F NOT PUSH1 0x1F DUP3 ADD AND DUP3 ADD DUP1 PUSH1 0x40 MSTORE POP PUSH2 0x3F5 SWAP2 SWAP1 DUP2 ADD SWAP1 PUSH2 0x104E JUMP JUMPDEST DUP2 PUSH2 0x3FC JUMPI INVALID JUMPDEST DIV SWAP1 POP NUMBER DUP2 DUP5 PUSH1 0x60 ADD MLOAD ADD GT PUSH2 0x447 JUMPI PUSH1 0x40 MLOAD PUSH32 0x8C379A000000000000000000000000000000000000000000000000000000000 DUP2 MSTORE PUSH1 0x4 ADD PUSH2 0x43E SWAP1 PUSH2 0x1879 JUMP JUMPDEST PUSH1 0x40 MLOAD DUP1 SWAP2 SUB SWAP1 REVERT JUMPDEST PUSH1 0x0 PUSH2 0x452 DUP5 PUSH2 0x6AF JUMP JUMPDEST SWAP1 POP PUSH1 0x0 PUSH1 0x3 DUP2 GT ISZERO PUSH2 0x461 JUMPI INVALID JUMPDEST PUSH1 0x1 PUSH1 0x0 DUP4 DUP2 MSTORE PUSH1 0x20 ADD SWAP1 DUP2 MSTORE PUSH1 0x20 ADD PUSH1 0x0 KECCAK256 PUSH1 0x0 ADD PUSH1 0x0 SWAP1 SLOAD SWAP1 PUSH2 0x100 EXP SWAP1 DIV PUSH1 0xFF AND PUSH1 0x3 DUP2 GT ISZERO PUSH2 0x490 JUMPI INVALID JUMPDEST EQ PUSH2 0x4D0 JUMPI PUSH1 0x40 MLOAD PUSH32 0x8C379A000000000000000000000000000000000000000000000000000000000 DUP2 MSTORE PUSH1 0x4 ADD PUSH2 0x4C7 SWAP1 PUSH2 0x1819 JUMP JUMPDEST PUSH1 0x40 MLOAD DUP1 SWAP2 SUB SWAP1 REVERT JUMPDEST PUSH2 0x4EB DUP4 PUSH2 0x4DD DUP4 PUSH2 0xAC3 JUMP JUMPDEST PUSH2 0xAF3 SWAP1 SWAP2 SWAP1 PUSH4 0xFFFFFFFF AND JUMP JUMPDEST PUSH20 0xFFFFFFFFFFFFFFFFFFFFFFFFFFFFFFFFFFFFFFFF AND PUSH1 0x3 PUSH1 0x0 SWAP1 SLOAD SWAP1 PUSH2 0x100 EXP SWAP1 DIV PUSH20 0xFFFFFFFFFFFFFFFFFFFFFFFFFFFFFFFFFFFFFFFF AND PUSH20 0xFFFFFFFFFFFFFFFFFFFFFFFFFFFFFFFFFFFFFFFF AND EQ PUSH2 0x57A JUMPI PUSH1 0x40 MLOAD PUSH32 0x8C379A000000000000000000000000000000000000000000000000000000000 DUP2 MSTORE PUSH1 0x4 ADD PUSH2 0x571 SWAP1 PUSH2 0x1939 JUMP JUMPDEST PUSH1 0x40 MLOAD DUP1 SWAP2 SUB SWAP1 REVERT JUMPDEST PUSH2 0x588 DUP2 DUP6 PUSH1 0x60 ADD MLOAD PUSH2 0xBDF JUMP JUMPDEST ISZERO PUSH2 0x5C8 JUMPI PUSH1 0x40 MLOAD PUSH32 0x8C379A000000000000000000000000000000000000000000000000000000000 DUP2 MSTORE PUSH1 0x4 ADD PUSH2 0x5BF SWAP1 PUSH2 0x1839 JUMP JUMPDEST PUSH1 0x40 MLOAD DUP1 SWAP2 SUB SWAP1 REVERT JUMPDEST PUSH1 0x1 DUP1 PUSH1 0x0 DUP4 DUP2 MSTORE PUSH1 0x20 ADD SWAP1 DUP2 MSTORE PUSH1 0x20 ADD PUSH1 0x0 KECCAK256 PUSH1 0x0 ADD PUSH1 0x0 PUSH2 0x100 EXP DUP2 SLOAD DUP2 PUSH1 0xFF MUL NOT AND SWAP1 DUP4 PUSH1 0x3 DUP2 GT ISZERO PUSH2 0x5FA JUMPI INVALID JUMPDEST MUL OR SWAP1 SSTORE POP PUSH1 0x4 SLOAD NUMBER ADD PUSH1 0x1 PUSH1 0x0 DUP4 DUP2 MSTORE PUSH1 0x20 ADD SWAP1 DUP2 MSTORE PUSH1 0x20 ADD PUSH1 0x0 KECCAK256 PUSH1 0x1 ADD DUP2 SWAP1 SSTORE POP DUP1 PUSH32 0xD3DA7170D8F421786F6E70CCB5D9C4A5E7E9E11AD0259765F3D5A48D9E2856C2 DUP6 PUSH1 0x20 ADD MLOAD DUP7 PUSH1 0x80 ADD MLOAD PUSH1 0x1 PUSH1 0x0 DUP7 DUP2 MSTORE PUSH1 0x20 ADD SWAP1 DUP2 MSTORE PUSH1 0x20 ADD PUSH1 0x0 KECCAK256 PUSH1 0x1 ADD SLOAD PUSH1 0x40 MLOAD PUSH2 0x670 SWAP4 SWAP3 SWAP2 SWAP1 PUSH2 0x168D JUMP JUMPDEST PUSH1 0x40 MLOAD DUP1 SWAP2 SUB SWAP1 LOG2 POP POP POP POP JUMP JUMPDEST PUSH1 0x1 PUSH1 0x20 MSTORE DUP1 PUSH1 0x0 MSTORE PUSH1 0x40 PUSH1 0x0 KECCAK256 PUSH1 0x0 SWAP2 POP SWAP1 POP DUP1 PUSH1 0x0 ADD PUSH1 0x0 SWAP1 SLOAD SWAP1 PUSH2 0x100 EXP SWAP1 DIV PUSH1 0xFF AND SWAP1 DUP1 PUSH1 0x1 ADD SLOAD SWAP1 POP DUP3 JUMP JUMPDEST PUSH1 0x0 DUP2 PUSH1 0x0 ADD MLOAD DUP3 PUSH1 0x20 ADD MLOAD DUP4 PUSH1 0x40 ADD MLOAD DUP5 PUSH1 0x60 ADD MLOAD DUP6 PUSH1 0x80 ADD MLOAD DUP7 PUSH1 0xA0 ADD MLOAD DUP8 PUSH1 0xC0 ADD MLOAD PUSH1 0x40 MLOAD PUSH1 0x20 ADD PUSH2 0x6EA SWAP8 SWAP7 SWAP6 SWAP5 SWAP4 SWAP3 SWAP2 SWAP1 PUSH2 0x16C4 JUMP JUMPDEST PUSH1 0x40 MLOAD PUSH1 0x20 DUP2 DUP4 SUB SUB DUP2 MSTORE SWAP1 PUSH1 0x40 MSTORE DUP1 MLOAD SWAP1 PUSH1 0x20 ADD KECCAK256 SWAP1 POP SWAP2 SWAP1 POP JUMP JUMPDEST PUSH1 0x4 SLOAD DUP2 JUMP JUMPDEST PUSH1 0x2 PUSH1 0x0 SWAP1 SLOAD SWAP1 PUSH2 0x100 EXP SWAP1 DIV PUSH20 0xFFFFFFFFFFFFFFFFFFFFFFFFFFFFFFFFFFFFFFFF AND DUP2 JUMP JUMPDEST PUSH1 0x0 PUSH2 0x73E DUP3 PUSH2 0x6AF JUMP JUMPDEST SWAP1 POP PUSH1 0x1 PUSH1 0x3 DUP2 GT ISZERO PUSH2 0x74D JUMPI INVALID JUMPDEST PUSH1 0x1 PUSH1 0x0 DUP4 DUP2 MSTORE PUSH1 0x20 ADD SWAP1 DUP2 MSTORE PUSH1 0x20 ADD PUSH1 0x0 KECCAK256 PUSH1 0x0 ADD PUSH1 0x0 SWAP1 SLOAD SWAP1 PUSH2 0x100 EXP SWAP1 DIV PUSH1 0xFF AND PUSH1 0x3 DUP2 GT ISZERO PUSH2 0x77C JUMPI INVALID JUMPDEST EQ PUSH2 0x7BC JUMPI PUSH1 0x40 MLOAD PUSH32 0x8C379A000000000000000000000000000000000000000000000000000000000 DUP2 MSTORE PUSH1 0x4 ADD PUSH2 0x7B3 SWAP1 PUSH2 0x18F9 JUMP JUMPDEST PUSH1 0x40 MLOAD DUP1 SWAP2 SUB SWAP1 REVERT JUMPDEST CALLVALUE DUP3 PUSH1 0x80 ADD MLOAD EQ PUSH2 0x802 JUMPI PUSH1 0x40 MLOAD PUSH32 0x8C379A000000000000000000000000000000000000000000000000000000000 DUP2 MSTORE PUSH1 0x4 ADD PUSH2 0x7F9 SWAP1 PUSH2 0x1899 JUMP JUMPDEST PUSH1 0x40 MLOAD DUP1 SWAP2 SUB SWAP1 REVERT JUMPDEST PUSH1 0x2 PUSH1 0x1 PUSH1 0x0 DUP4 DUP2 MSTORE PUSH1 0x20 ADD SWAP1 DUP2 MSTORE PUSH1 0x20 ADD PUSH1 0x0 KECCAK256 PUSH1 0x0 ADD PUSH1 0x0 PUSH2 0x100 EXP DUP2 SLOAD DUP2 PUSH1 0xFF MUL NOT AND SWAP1 DUP4 PUSH1 0x3 DUP2 GT ISZERO PUSH2 0x835 JUMPI INVALID JUMPDEST MUL OR SWAP1 SSTORE POP DUP1 PUSH32 0x3950574A207E67E1018824BC0637C21B2A6777DF9460813D666B4198CBE2365D CALLER DUP5 PUSH1 0x20 ADD MLOAD CALLVALUE PUSH1 0x40 MLOAD PUSH2 0x872 SWAP4 SWAP3 SWAP2 SWAP1 PUSH2 0x1656 JUMP JUMPDEST PUSH1 0x40 MLOAD DUP1 SWAP2 SUB SWAP1 LOG2 POP POP JUMP JUMPDEST PUSH1 0x0 PUSH2 0x889 DUP3 PUSH2 0x6AF JUMP JUMPDEST SWAP1 POP PUSH1 0x2 PUSH1 0x3 DUP2 GT ISZERO PUSH2 0x898 JUMPI INVALID JUMPDEST PUSH1 0x1 PUSH1 0x0 DUP4 DUP2 MSTORE PUSH1 0x20 ADD SWAP1 DUP2 MSTORE PUSH1 0x20 ADD PUSH1 0x0 KECCAK256 PUSH1 0x0 ADD PUSH1 0x0 SWAP1 SLOAD SWAP1 PUSH2 0x100 EXP SWAP1 DIV PUSH1 0xFF AND PUSH1 0x3 DUP2 GT ISZERO PUSH2 0x8C7 JUMPI INVALID JUMPDEST EQ PUSH2 0x907 JUMPI PUSH1 0x40 MLOAD PUSH32 0x8C379A000000000000000000000000000000000000000000000000000000000 DUP2 MSTORE PUSH1 0x4 ADD PUSH2 0x8FE SWAP1 PUSH2 0x17F9 JUMP JUMPDEST PUSH1 0x40 MLOAD DUP1 SWAP2 SUB SWAP1 REVERT JUMPDEST PUSH1 0x3 PUSH1 0x1 PUSH1 0x0 DUP4 DUP2 MSTORE PUSH1 0x20 ADD SWAP1 DUP2 MSTORE PUSH1 0x20 ADD PUSH1 0x0 KECCAK256 PUSH1 0x0 ADD PUSH1 0x0 PUSH2 0x100 EXP DUP2 SLOAD DUP2 PUSH1 0xFF MUL NOT AND SWAP1 DUP4 PUSH1 0x3 DUP2 GT ISZERO PUSH2 0x93A JUMPI INVALID JUMPDEST MUL OR SWAP1 SSTORE POP PUSH1 0x0 DUP3 PUSH1 0x80 ADD MLOAD SWAP1 POP DUP3 PUSH1 0x20 ADD MLOAD PUSH20 0xFFFFFFFFFFFFFFFFFFFFFFFFFFFFFFFFFFFFFFFF AND PUSH2 0x8FC DUP3 SWAP1 DUP2 ISZERO MUL SWAP1 PUSH1 0x40 MLOAD PUSH1 0x0 PUSH1 0x40 MLOAD DUP1 DUP4 SUB DUP2 DUP6 DUP9 DUP9 CALL SWAP4 POP POP POP POP ISZERO DUP1 ISZERO PUSH2 0x992 JUMPI RETURNDATASIZE PUSH1 0x0 DUP1 RETURNDATACOPY RETURNDATASIZE PUSH1 0x0 REVERT JUMPDEST POP POP POP POP JUMP JUMPDEST PUSH1 0x0 PUSH2 0x9A3 DUP3 PUSH2 0x6AF JUMP JUMPDEST SWAP1 POP PUSH1 0x1 PUSH1 0x3 DUP2 GT ISZERO PUSH2 0x9B2 JUMPI INVALID JUMPDEST PUSH1 0x1 PUSH1 0x0 DUP4 DUP2 MSTORE PUSH1 0x20 ADD SWAP1 DUP2 MSTORE PUSH1 0x20 ADD PUSH1 0x0 KECCAK256 PUSH1 0x0 ADD PUSH1 0x0 SWAP1 SLOAD SWAP1 PUSH2 0x100 EXP SWAP1 DIV PUSH1 0xFF AND PUSH1 0x3 DUP2 GT ISZERO PUSH2 0x9E1 JUMPI INVALID JUMPDEST EQ PUSH2 0xA21 JUMPI PUSH1 0x40 MLOAD PUSH32 0x8C379A000000000000000000000000000000000000000000000000000000000 DUP2 MSTORE PUSH1 0x4 ADD PUSH2 0xA18 SWAP1 PUSH2 0x18B9 JUMP JUMPDEST PUSH1 0x40 MLOAD DUP1 SWAP2 SUB SWAP1 REVERT JUMPDEST PUSH1 0x1 PUSH1 0x0 DUP3 DUP2 MSTORE PUSH1 0x20 ADD SWAP1 DUP2 MSTORE PUSH1 0x20 ADD PUSH1 0x0 KECCAK256 PUSH1 0x1 ADD SLOAD NUMBER GT PUSH2 0xA79 JUMPI PUSH1 0x40 MLOAD PUSH32 0x8C379A000000000000000000000000000000000000000000000000000000000 DUP2 MSTORE PUSH1 0x4 ADD PUSH2 0xA70 SWAP1 PUSH2 0x1859 JUMP JUMPDEST PUSH1 0x40 MLOAD DUP1 SWAP2 SUB SWAP1 REVERT JUMPDEST PUSH1 0x1 PUSH1 0x0 DUP1 PUSH2 0x100 EXP DUP2 SLOAD DUP2 PUSH1 0xFF MUL NOT AND SWAP1 DUP4 ISZERO ISZERO MUL OR SWAP1 SSTORE POP PUSH32 0xBF49DC0FA3525DC307A5CC4F836C0FEAD74F7E10D9A6393117061B0A7B974005 PUSH1 0x40 MLOAD PUSH1 0x40 MLOAD DUP1 SWAP2 SUB SWAP1 LOG1 POP POP JUMP JUMPDEST PUSH1 0x0 DUP2 PUSH1 0x40 MLOAD PUSH1 0x20 ADD PUSH2 0xAD6 SWAP2 SWAP1 PUSH2 0x1630 JUMP JUMPDEST PUSH1 0x40 MLOAD PUSH1 0x20 DUP2 DUP4 SUB SUB DUP2 MSTORE SWAP1 PUSH1 0x40 MSTORE DUP1 MLOAD SWAP1 PUSH1 0x20 ADD KECCAK256 SWAP1 POP SWAP2 SWAP1 POP JUMP JUMPDEST PUSH1 0x0 PUSH1 0x41 DUP3 MLOAD EQ PUSH2 0xB07 JUMPI PUSH1 0x0 SWAP1 POP PUSH2 0xBD9 JUMP JUMPDEST PUSH1 0x0 DUP1 PUSH1 0x0 PUSH1 0x20 DUP6 ADD MLOAD SWAP3 POP PUSH1 0x40 DUP6 ADD MLOAD SWAP2 POP PUSH1 0x60 DUP6 ADD MLOAD PUSH1 0x0 BYTE SWAP1 POP PUSH32 0x7FFFFFFFFFFFFFFFFFFFFFFFFFFFFFFF5D576E7357A4501DDFE92F46681B20A0 DUP3 PUSH1 0x0 SHR GT ISZERO PUSH2 0xB5B JUMPI PUSH1 0x0 SWAP4 POP POP POP POP PUSH2 0xBD9 JUMP JUMPDEST PUSH1 0x1B DUP2 PUSH1 0xFF AND EQ ISZERO DUP1 ISZERO PUSH2 0xB73 JUMPI POP PUSH1 0x1C DUP2 PUSH1 0xFF AND EQ ISZERO JUMPDEST ISZERO PUSH2 0xB84 JUMPI PUSH1 0x0 SWAP4 POP POP POP POP PUSH2 0xBD9 JUMP JUMPDEST PUSH1 0x1 DUP7 DUP3 DUP6 DUP6 PUSH1 0x40 MLOAD PUSH1 0x0 DUP2 MSTORE PUSH1 0x20 ADD PUSH1 0x40 MSTORE PUSH1 0x40 MLOAD PUSH2 0xBA7 SWAP5 SWAP4 SWAP3 SWAP2 SWAP1 PUSH2 0x1770 JUMP JUMPDEST PUSH1 0x20 PUSH1 0x40 MLOAD PUSH1 0x20 DUP2 SUB SWAP1 DUP1 DUP5 SUB SWAP1 DUP6 GAS STATICCALL ISZERO DUP1 ISZERO PUSH2 0xBC9 JUMPI RETURNDATASIZE PUSH1 0x0 DUP1 RETURNDATACOPY RETURNDATASIZE PUSH1 0x0 REVERT JUMPDEST POP POP POP PUSH1 0x20 PUSH1 0x40 MLOAD SUB MLOAD SWAP4 POP POP POP POP JUMPDEST SWAP3 SWAP2 POP POP JUMP JUMPDEST PUSH1 0x0 DUP1 PUSH1 0x2 PUSH1 0x0 SWAP1 SLOAD SWAP1 PUSH2 0x100 EXP SWAP1 DIV PUSH20 0xFFFFFFFFFFFFFFFFFFFFFFFFFFFFFFFFFFFFFFFF AND PUSH20 0xFFFFFFFFFFFFFFFFFFFFFFFFFFFFFFFFFFFFFFFF AND PUSH4 0xA63D6E44 PUSH1 0x40 MLOAD DUP2 PUSH4 0xFFFFFFFF AND PUSH1 0xE0 SHL DUP2 MSTORE PUSH1 0x4 ADD PUSH1 0x20 PUSH1 0x40 MLOAD DUP1 DUP4 SUB DUP2 DUP7 DUP1 EXTCODESIZE ISZERO DUP1 ISZERO PUSH2 0xC4A JUMPI PUSH1 0x0 DUP1 REVERT JUMPDEST POP GAS STATICCALL ISZERO DUP1 ISZERO PUSH2 0xC5E JUMPI RETURNDATASIZE PUSH1 0x0 DUP1 RETURNDATACOPY RETURNDATASIZE PUSH1 0x0 REVERT JUMPDEST POP POP POP POP PUSH1 0x40 MLOAD RETURNDATASIZE PUSH1 0x1F NOT PUSH1 0x1F DUP3 ADD AND DUP3 ADD DUP1 PUSH1 0x40 MSTORE POP PUSH2 0xC82 SWAP2 SWAP1 DUP2 ADD SWAP1 PUSH2 0x104E JUMP JUMPDEST SWAP1 POP PUSH1 0x0 DUP1 SWAP1 POP JUMPDEST DUP2 DUP2 LT ISZERO PUSH2 0xD92 JUMPI PUSH1 0x0 PUSH1 0x2 PUSH1 0x0 SWAP1 SLOAD SWAP1 PUSH2 0x100 EXP SWAP1 DIV PUSH20 0xFFFFFFFFFFFFFFFFFFFFFFFFFFFFFFFFFFFFFFFF AND PUSH20 0xFFFFFFFFFFFFFFFFFFFFFFFFFFFFFFFFFFFFFFFF AND PUSH4 0x7A329989 DUP4 PUSH1 0x2 PUSH1 0x0 SWAP1 SLOAD SWAP1 PUSH2 0x100 EXP SWAP1 DIV PUSH20 0xFFFFFFFFFFFFFFFFFFFFFFFFFFFFFFFFFFFFFFFF AND DUP10 PUSH1 0x40 MLOAD DUP5 PUSH4 0xFFFFFFFF AND PUSH1 0xE0 SHL DUP2 MSTORE PUSH1 0x4 ADD PUSH2 0xD15 SWAP4 SWAP3 SWAP2 SWAP1 PUSH2 0x1994 JUMP JUMPDEST PUSH1 0x20 PUSH1 0x40 MLOAD DUP1 DUP4 SUB DUP2 DUP7 DUP1 EXTCODESIZE ISZERO DUP1 ISZERO PUSH2 0xD2D JUMPI PUSH1 0x0 DUP1 REVERT JUMPDEST POP GAS STATICCALL ISZERO DUP1 ISZERO PUSH2 0xD41 JUMPI RETURNDATASIZE PUSH1 0x0 DUP1 RETURNDATACOPY RETURNDATASIZE PUSH1 0x0 REVERT JUMPDEST POP POP POP POP PUSH1 0x40 MLOAD RETURNDATASIZE PUSH1 0x1F NOT PUSH1 0x1F DUP3 ADD AND DUP3 ADD DUP1 PUSH1 0x40 MSTORE POP PUSH2 0xD65 SWAP2 SWAP1 DUP2 ADD SWAP1 PUSH2 0x104E JUMP JUMPDEST SWAP1 POP PUSH1 0x0 DUP2 GT ISZERO PUSH2 0xD84 JUMPI DUP1 DUP6 LT PUSH2 0xD83 JUMPI PUSH1 0x1 SWAP4 POP POP POP POP PUSH2 0xD99 JUMP JUMPDEST JUMPDEST POP DUP1 DUP1 PUSH1 0x1 ADD SWAP2 POP POP PUSH2 0xC8A JUMP JUMPDEST POP PUSH1 0x0 SWAP2 POP POP JUMPDEST SWAP3 SWAP2 POP POP JUMP JUMPDEST PUSH1 0x0 DUP2 CALLDATALOAD SWAP1 POP PUSH2 0xDAE DUP2 PUSH2 0x1BE2 JUMP JUMPDEST SWAP3 SWAP2 POP POP JUMP JUMPDEST PUSH1 0x0 DUP2 CALLDATALOAD SWAP1 POP PUSH2 0xDC3 DUP2 PUSH2 0x1BF9 JUMP JUMPDEST SWAP3 SWAP2 POP POP JUMP JUMPDEST PUSH1 0x0 DUP2 CALLDATALOAD SWAP1 POP PUSH2 0xDD8 DUP2 PUSH2 0x1C10 JUMP JUMPDEST SWAP3 SWAP2 POP POP JUMP JUMPDEST PUSH1 0x0 DUP3 PUSH1 0x1F DUP4 ADD SLT PUSH2 0xDEF JUMPI PUSH1 0x0 DUP1 REVERT JUMPDEST DUP2 CALLDATALOAD PUSH2 0xE02 PUSH2 0xDFD DUP3 PUSH2 0x19F8 JUMP JUMPDEST PUSH2 0x19CB JUMP JUMPDEST SWAP2 POP DUP1 DUP3 MSTORE PUSH1 0x20 DUP4 ADD PUSH1 0x20 DUP4 ADD DUP6 DUP4 DUP4 ADD GT ISZERO PUSH2 0xE1E JUMPI PUSH1 0x0 DUP1 REVERT JUMPDEST PUSH2 0xE29 DUP4 DUP3 DUP5 PUSH2 0x1B78 JUMP JUMPDEST POP POP POP SWAP3 SWAP2 POP POP JUMP JUMPDEST PUSH1 0x0 DUP3 PUSH1 0x1F DUP4 ADD SLT PUSH2 0xE43 JUMPI PUSH1 0x0 DUP1 REVERT JUMPDEST DUP2 CALLDATALOAD PUSH2 0xE56 PUSH2 0xE51 DUP3 PUSH2 0x1A24 JUMP JUMPDEST PUSH2 0x19CB JUMP JUMPDEST SWAP2 POP DUP1 DUP3 MSTORE PUSH1 0x20 DUP4 ADD PUSH1 0x20 DUP4 ADD DUP6 DUP4 DUP4 ADD GT ISZERO PUSH2 0xE72 JUMPI PUSH1 0x0 DUP1 REVERT JUMPDEST PUSH2 0xE7D DUP4 DUP3 DUP5 PUSH2 0x1B78 JUMP JUMPDEST POP POP POP SWAP3 SWAP2 POP POP JUMP JUMPDEST PUSH1 0x0 PUSH1 0xE0 DUP3 DUP5 SUB SLT ISZERO PUSH2 0xE98 JUMPI PUSH1 0x0 DUP1 REVERT JUMPDEST PUSH2 0xEA2 PUSH1 0xE0 PUSH2 0x19CB JUMP JUMPDEST SWAP1 POP PUSH1 0x0 PUSH2 0xEB2 DUP5 DUP3 DUP6 ADD PUSH2 0xD9F JUMP JUMPDEST PUSH1 0x0 DUP4 ADD MSTORE POP PUSH1 0x20 PUSH2 0xEC6 DUP5 DUP3 DUP6 ADD PUSH2 0xDB4 JUMP JUMPDEST PUSH1 0x20 DUP4 ADD MSTORE POP PUSH1 0x40 DUP3 ADD CALLDATALOAD PUSH8 0xFFFFFFFFFFFFFFFF DUP2 GT ISZERO PUSH2 0xEE6 JUMPI PUSH1 0x0 DUP1 REVERT JUMPDEST PUSH2 0xEF2 DUP5 DUP3 DUP6 ADD PUSH2 0xDDE JUMP JUMPDEST PUSH1 0x40 DUP4 ADD MSTORE POP PUSH1 0x60 PUSH2 0xF06 DUP5 DUP3 DUP6 ADD PUSH2 0xF4E JUMP JUMPDEST PUSH1 0x60 DUP4 ADD MSTORE POP PUSH1 0x80 PUSH2 0xF1A DUP5 DUP3 DUP6 ADD PUSH2 0xF4E JUMP JUMPDEST PUSH1 0x80 DUP4 ADD MSTORE POP PUSH1 0xA0 PUSH2 0xF2E DUP5 DUP3 DUP6 ADD PUSH2 0xF4E JUMP JUMPDEST PUSH1 0xA0 DUP4 ADD MSTORE POP PUSH1 0xC0 PUSH2 0xF42 DUP5 DUP3 DUP6 ADD PUSH2 0xD9F JUMP JUMPDEST PUSH1 0xC0 DUP4 ADD MSTORE POP SWAP3 SWAP2 POP POP JUMP JUMPDEST PUSH1 0x0 DUP2 CALLDATALOAD SWAP1 POP PUSH2 0xF5D DUP2 PUSH2 0x1C27 JUMP JUMPDEST SWAP3 SWAP2 POP POP JUMP JUMPDEST PUSH1 0x0 DUP2 MLOAD SWAP1 POP PUSH2 0xF72 DUP2 PUSH2 0x1C27 JUMP JUMPDEST SWAP3 SWAP2 POP POP JUMP JUMPDEST PUSH1 0x0 PUSH1 0x20 DUP3 DUP5 SUB SLT ISZERO PUSH2 0xF8A JUMPI PUSH1 0x0 DUP1 REVERT JUMPDEST PUSH1 0x0 PUSH2 0xF98 DUP5 DUP3 DUP6 ADD PUSH2 0xDC9 JUMP JUMPDEST SWAP2 POP POP SWAP3 SWAP2 POP POP JUMP JUMPDEST PUSH1 0x0 PUSH1 0x20 DUP3 DUP5 SUB SLT ISZERO PUSH2 0xFB3 JUMPI PUSH1 0x0 DUP1 REVERT JUMPDEST PUSH1 0x0 DUP3 ADD CALLDATALOAD PUSH8 0xFFFFFFFFFFFFFFFF DUP2 GT ISZERO PUSH2 0xFCD JUMPI PUSH1 0x0 DUP1 REVERT JUMPDEST PUSH2 0xFD9 DUP5 DUP3 DUP6 ADD PUSH2 0xE86 JUMP JUMPDEST SWAP2 POP POP SWAP3 SWAP2 POP POP JUMP JUMPDEST PUSH1 0x0 DUP1 PUSH1 0x40 DUP4 DUP6 SUB SLT ISZERO PUSH2 0xFF5 JUMPI PUSH1 0x0 DUP1 REVERT JUMPDEST PUSH1 0x0 DUP4 ADD CALLDATALOAD PUSH8 0xFFFFFFFFFFFFFFFF DUP2 GT ISZERO PUSH2 0x100F JUMPI PUSH1 0x0 DUP1 REVERT JUMPDEST PUSH2 0x101B DUP6 DUP3 DUP7 ADD PUSH2 0xE86 JUMP JUMPDEST SWAP3 POP POP PUSH1 0x20 DUP4 ADD CALLDATALOAD PUSH8 0xFFFFFFFFFFFFFFFF DUP2 GT ISZERO PUSH2 0x1038 JUMPI PUSH1 0x0 DUP1 REVERT JUMPDEST PUSH2 0x1044 DUP6 DUP3 DUP7 ADD PUSH2 0xE32 JUMP JUMPDEST SWAP2 POP POP SWAP3 POP SWAP3 SWAP1 POP JUMP JUMPDEST PUSH1 0x0 PUSH1 0x20 DUP3 DUP5 SUB SLT ISZERO PUSH2 0x1060 JUMPI PUSH1 0x0 DUP1 REVERT JUMPDEST PUSH1 0x0 PUSH2 0x106E DUP5 DUP3 DUP6 ADD PUSH2 0xF63 JUMP JUMPDEST SWAP2 POP POP SWAP3 SWAP2 POP POP JUMP JUMPDEST PUSH2 0x1080 DUP2 PUSH2 0x1B0C JUMP JUMPDEST DUP3 MSTORE POP POP JUMP JUMPDEST PUSH2 0x108F DUP2 PUSH2 0x1A9A JUMP JUMPDEST DUP3 MSTORE POP POP JUMP JUMPDEST PUSH2 0x109E DUP2 PUSH2 0x1A88 JUMP JUMPDEST DUP3 MSTORE POP POP JUMP JUMPDEST PUSH2 0x10AD DUP2 PUSH2 0x1AAC JUMP JUMPDEST DUP3 MSTORE POP POP JUMP JUMPDEST PUSH2 0x10BC DUP2 PUSH2 0x1AB8 JUMP JUMPDEST DUP3 MSTORE POP POP JUMP JUMPDEST PUSH2 0x10D3 PUSH2 0x10CE DUP3 PUSH2 0x1AB8 JUMP JUMPDEST PUSH2 0x1BBA JUMP JUMPDEST DUP3 MSTORE POP POP JUMP JUMPDEST PUSH1 0x0 PUSH2 0x10E4 DUP3 PUSH2 0x1A50 JUMP JUMPDEST PUSH2 0x10EE DUP2 DUP6 PUSH2 0x1A5B JUMP JUMPDEST SWAP4 POP PUSH2 0x10FE DUP2 DUP6 PUSH1 0x20 DUP7 ADD PUSH2 0x1B87 JUMP JUMPDEST PUSH2 0x1107 DUP2 PUSH2 0x1BC4 JUMP JUMPDEST DUP5 ADD SWAP2 POP POP SWAP3 SWAP2 POP POP JUMP JUMPDEST PUSH2 0x111B DUP2 PUSH2 0x1B1E JUMP JUMPDEST DUP3 MSTORE POP POP JUMP JUMPDEST PUSH2 0x112A DUP2 PUSH2 0x1B42 JUMP JUMPDEST DUP3 MSTORE POP POP JUMP JUMPDEST PUSH1 0x0 PUSH2 0x113D PUSH1 0x25 DUP4 PUSH2 0x1A6C JUMP JUMPDEST SWAP2 POP PUSH32 0x526566756E64207265636F7264206D75737420626520696E20524546554E4420 PUSH1 0x0 DUP4 ADD MSTORE PUSH32 0x6D6F64652E000000000000000000000000000000000000000000000000000000 PUSH1 0x20 DUP4 ADD MSTORE PUSH1 0x40 DUP3 ADD SWAP1 POP SWAP2 SWAP1 POP JUMP JUMPDEST PUSH1 0x0 PUSH2 0x11A3 PUSH1 0x1C DUP4 PUSH2 0x1A6C JUMP JUMPDEST SWAP2 POP PUSH32 0x43616E6E6F74207265717565737420726566756E642074776963652E00000000 PUSH1 0x0 DUP4 ADD MSTORE PUSH1 0x20 DUP3 ADD SWAP1 POP SWAP2 SWAP1 POP JUMP JUMPDEST PUSH1 0x0 PUSH2 0x11E3 PUSH1 0x1C DUP4 PUSH2 0x1A7D JUMP JUMPDEST SWAP2 POP PUSH32 0x19457468657265756D205369676E6564204D6573736167653A0A333200000000 PUSH1 0x0 DUP4 ADD MSTORE PUSH1 0x1C DUP3 ADD SWAP1 POP SWAP2 SWAP1 POP JUMP JUMPDEST PUSH1 0x0 PUSH2 0x1223 PUSH1 0x35 DUP4 PUSH2 0x1A6C JUMP JUMPDEST SWAP2 POP PUSH32 0x4E6F20726566756E642061732072656C6179207472616E73616374696F6E2077 PUSH1 0x0 DUP4 ADD MSTORE PUSH32 0x617320636F6D706C6574656420696E2074696D652E0000000000000000000000 PUSH1 0x20 DUP4 ADD MSTORE PUSH1 0x40 DUP3 ADD SWAP1 POP SWAP2 SWAP1 POP JUMP JUMPDEST PUSH1 0x0 PUSH2 0x1289 PUSH1 0x25 DUP4 PUSH2 0x1A6C JUMP JUMPDEST SWAP2 POP PUSH32 0x446561646C696E6520666F7220726566756E64206D7573742068617665207061 PUSH1 0x0 DUP4 ADD MSTORE PUSH32 0x737365642E000000000000000000000000000000000000000000000000000000 PUSH1 0x20 DUP4 ADD MSTORE PUSH1 0x40 DUP3 ADD SWAP1 POP SWAP2 SWAP1 POP JUMP JUMPDEST PUSH1 0x0 PUSH2 0x12EF PUSH1 0x2B DUP4 PUSH2 0x1A6C JUMP JUMPDEST SWAP2 POP PUSH32 0x5265636F7264206D6179206E6F206C6F6E67657220657869737420696E207468 PUSH1 0x0 DUP4 ADD MSTORE PUSH32 0x652072656769737472792E000000000000000000000000000000000000000000 PUSH1 0x20 DUP4 ADD MSTORE PUSH1 0x40 DUP3 ADD SWAP1 POP SWAP2 SWAP1 POP JUMP JUMPDEST PUSH1 0x0 PUSH2 0x1355 PUSH1 0x24 DUP4 PUSH2 0x1A6C JUMP JUMPDEST SWAP2 POP PUSH32 0x52656C61796572206D75737420726566756E6420746865206578616374207661 PUSH1 0x0 DUP4 ADD MSTORE PUSH32 0x6C75652E00000000000000000000000000000000000000000000000000000000 PUSH1 0x20 DUP4 ADD MSTORE PUSH1 0x40 DUP3 ADD SWAP1 POP SWAP2 SWAP1 POP JUMP JUMPDEST PUSH1 0x0 PUSH2 0x13BB PUSH1 0x23 DUP4 PUSH2 0x1A6C JUMP JUMPDEST SWAP2 POP PUSH32 0x526566756E64537461747573206D757374207374696C6C2062652050454E4449 PUSH1 0x0 DUP4 ADD MSTORE PUSH32 0x4E472E0000000000000000000000000000000000000000000000000000000000 PUSH1 0x20 DUP4 ADD MSTORE PUSH1 0x40 DUP3 ADD SWAP1 POP SWAP2 SWAP1 POP JUMP JUMPDEST PUSH1 0x0 PUSH2 0x1421 PUSH1 0x2A DUP4 PUSH2 0x1A6C JUMP JUMPDEST SWAP2 POP PUSH32 0x4D69736D61746368696E672072656C6179206164647265737320696E20746865 PUSH1 0x0 DUP4 ADD MSTORE PUSH32 0x2072656C61792074782E00000000000000000000000000000000000000000000 PUSH1 0x20 DUP4 ADD MSTORE PUSH1 0x40 DUP3 ADD SWAP1 POP SWAP2 SWAP1 POP JUMP JUMPDEST PUSH1 0x0 PUSH2 0x1487 PUSH1 0x26 DUP4 PUSH2 0x1A6C JUMP JUMPDEST SWAP2 POP PUSH32 0x526566756E64207265636F7264206D75737420626520696E2050454E44494E47 PUSH1 0x0 DUP4 ADD MSTORE PUSH32 0x206D6F64652E0000000000000000000000000000000000000000000000000000 PUSH1 0x20 DUP4 ADD MSTORE PUSH1 0x40 DUP3 ADD SWAP1 POP SWAP2 SWAP1 POP JUMP JUMPDEST PUSH1 0x0 PUSH2 0x14ED PUSH1 0x2D DUP4 PUSH2 0x1A6C JUMP JUMPDEST SWAP2 POP PUSH32 0x5468652072656C61796572207374696C6C206861732074696D6520746F206669 PUSH1 0x0 DUP4 ADD MSTORE PUSH32 0x6E69736820746865206A6F622E00000000000000000000000000000000000000 PUSH1 0x20 DUP4 ADD MSTORE PUSH1 0x40 DUP3 ADD SWAP1 POP SWAP2 SWAP1 POP JUMP JUMPDEST PUSH1 0x0 PUSH2 0x1553 PUSH1 0x21 DUP4 PUSH2 0x1A6C JUMP JUMPDEST SWAP2 POP PUSH32 0x52656C6179657220646964206E6F74207369676E207468652072656365697074 PUSH1 0x0 DUP4 ADD MSTORE PUSH32 0x2E00000000000000000000000000000000000000000000000000000000000000 PUSH1 0x20 DUP4 ADD MSTORE PUSH1 0x40 DUP3 ADD SWAP1 POP SWAP2 SWAP1 POP JUMP JUMPDEST PUSH1 0x0 PUSH2 0x15B9 PUSH1 0x2B DUP4 PUSH2 0x1A6C JUMP JUMPDEST SWAP2 POP PUSH32 0x4E6F20726566756E642070726F6D6973656420746F20637573746F6D65722069 PUSH1 0x0 DUP4 ADD MSTORE PUSH32 0x6E2072656C61792074782E000000000000000000000000000000000000000000 PUSH1 0x20 DUP4 ADD MSTORE PUSH1 0x40 DUP3 ADD SWAP1 POP SWAP2 SWAP1 POP JUMP JUMPDEST PUSH2 0x161B DUP2 PUSH2 0x1AF5 JUMP JUMPDEST DUP3 MSTORE POP POP JUMP JUMPDEST PUSH2 0x162A DUP2 PUSH2 0x1AFF JUMP JUMPDEST DUP3 MSTORE POP POP JUMP JUMPDEST PUSH1 0x0 PUSH2 0x163B DUP3 PUSH2 0x11D6 JUMP JUMPDEST SWAP2 POP PUSH2 0x1647 DUP3 DUP5 PUSH2 0x10C2 JUMP JUMPDEST PUSH1 0x20 DUP3 ADD SWAP2 POP DUP2 SWAP1 POP SWAP3 SWAP2 POP POP JUMP JUMPDEST PUSH1 0x0 PUSH1 0x60 DUP3 ADD SWAP1 POP PUSH2 0x166B PUSH1 0x0 DUP4 ADD DUP7 PUSH2 0x1077 JUMP JUMPDEST PUSH2 0x1678 PUSH1 0x20 DUP4 ADD DUP6 PUSH2 0x1077 JUMP JUMPDEST PUSH2 0x1685 PUSH1 0x40 DUP4 ADD DUP5 PUSH2 0x1612 JUMP JUMPDEST SWAP5 SWAP4 POP POP POP POP JUMP JUMPDEST PUSH1 0x0 PUSH1 0x60 DUP3 ADD SWAP1 POP PUSH2 0x16A2 PUSH1 0x0 DUP4 ADD DUP7 PUSH2 0x1077 JUMP JUMPDEST PUSH2 0x16AF PUSH1 0x20 DUP4 ADD DUP6 PUSH2 0x1612 JUMP JUMPDEST PUSH2 0x16BC PUSH1 0x40 DUP4 ADD DUP5 PUSH2 0x1612 JUMP JUMPDEST SWAP5 SWAP4 POP POP POP POP JUMP JUMPDEST PUSH1 0x0 PUSH1 0xE0 DUP3 ADD SWAP1 POP PUSH2 0x16D9 PUSH1 0x0 DUP4 ADD DUP11 PUSH2 0x1095 JUMP JUMPDEST PUSH2 0x16E6 PUSH1 0x20 DUP4 ADD DUP10 PUSH2 0x1086 JUMP JUMPDEST DUP2 DUP2 SUB PUSH1 0x40 DUP4 ADD MSTORE PUSH2 0x16F8 DUP2 DUP9 PUSH2 0x10D9 JUMP JUMPDEST SWAP1 POP PUSH2 0x1707 PUSH1 0x60 DUP4 ADD DUP8 PUSH2 0x1612 JUMP JUMPDEST PUSH2 0x1714 PUSH1 0x80 DUP4 ADD DUP7 PUSH2 0x1612 JUMP JUMPDEST PUSH2 0x1721 PUSH1 0xA0 DUP4 ADD DUP6 PUSH2 0x1612 JUMP JUMPDEST PUSH2 0x172E PUSH1 0xC0 DUP4 ADD DUP5 PUSH2 0x1095 JUMP JUMPDEST SWAP9 SWAP8 POP POP POP POP POP POP POP POP JUMP JUMPDEST PUSH1 0x0 PUSH1 0x20 DUP3 ADD SWAP1 POP PUSH2 0x174F PUSH1 0x0 DUP4 ADD DUP5 PUSH2 0x10A4 JUMP JUMPDEST SWAP3 SWAP2 POP POP JUMP JUMPDEST PUSH1 0x0 PUSH1 0x20 DUP3 ADD SWAP1 POP PUSH2 0x176A PUSH1 0x0 DUP4 ADD DUP5 PUSH2 0x10B3 JUMP JUMPDEST SWAP3 SWAP2 POP POP JUMP JUMPDEST PUSH1 0x0 PUSH1 0x80 DUP3 ADD SWAP1 POP PUSH2 0x1785 PUSH1 0x0 DUP4 ADD DUP8 PUSH2 0x10B3 JUMP JUMPDEST PUSH2 0x1792 PUSH1 0x20 DUP4 ADD DUP7 PUSH2 0x1621 JUMP JUMPDEST PUSH2 0x179F PUSH1 0x40 DUP4 ADD DUP6 PUSH2 0x10B3 JUMP JUMPDEST PUSH2 0x17AC PUSH1 0x60 DUP4 ADD DUP5 PUSH2 0x10B3 JUMP JUMPDEST SWAP6 SWAP5 POP POP POP POP POP JUMP JUMPDEST PUSH1 0x0 PUSH1 0x20 DUP3 ADD SWAP1 POP PUSH2 0x17CA PUSH1 0x0 DUP4 ADD DUP5 PUSH2 0x1112 JUMP JUMPDEST SWAP3 SWAP2 POP POP JUMP JUMPDEST PUSH1 0x0 PUSH1 0x40 DUP3 ADD SWAP1 POP PUSH2 0x17E5 PUSH1 0x0 DUP4 ADD DUP6 PUSH2 0x1121 JUMP JUMPDEST PUSH2 0x17F2 PUSH1 0x20 DUP4 ADD DUP5 PUSH2 0x1612 JUMP JUMPDEST SWAP4 SWAP3 POP POP POP JUMP JUMPDEST PUSH1 0x0 PUSH1 0x20 DUP3 ADD SWAP1 POP DUP2 DUP2 SUB PUSH1 0x0 DUP4 ADD MSTORE PUSH2 0x1812 DUP2 PUSH2 0x1130 JUMP JUMPDEST SWAP1 POP SWAP2 SWAP1 POP JUMP JUMPDEST PUSH1 0x0 PUSH1 0x20 DUP3 ADD SWAP1 POP DUP2 DUP2 SUB PUSH1 0x0 DUP4 ADD MSTORE PUSH2 0x1832 DUP2 PUSH2 0x1196 JUMP JUMPDEST SWAP1 POP SWAP2 SWAP1 POP JUMP JUMPDEST PUSH1 0x0 PUSH1 0x20 DUP3 ADD SWAP1 POP DUP2 DUP2 SUB PUSH1 0x0 DUP4 ADD MSTORE PUSH2 0x1852 DUP2 PUSH2 0x1216 JUMP JUMPDEST SWAP1 POP SWAP2 SWAP1 POP JUMP JUMPDEST PUSH1 0x0 PUSH1 0x20 DUP3 ADD SWAP1 POP DUP2 DUP2 SUB PUSH1 0x0 DUP4 ADD MSTORE PUSH2 0x1872 DUP2 PUSH2 0x127C JUMP JUMPDEST SWAP1 POP SWAP2 SWAP1 POP JUMP JUMPDEST PUSH1 0x0 PUSH1 0x20 DUP3 ADD SWAP1 POP DUP2 DUP2 SUB PUSH1 0x0 DUP4 ADD MSTORE PUSH2 0x1892 DUP2 PUSH2 0x12E2 JUMP JUMPDEST SWAP1 POP SWAP2 SWAP1 POP JUMP JUMPDEST PUSH1 0x0 PUSH1 0x20 DUP3 ADD SWAP1 POP DUP2 DUP2 SUB PUSH1 0x0 DUP4 ADD MSTORE PUSH2 0x18B2 DUP2 PUSH2 0x1348 JUMP JUMPDEST SWAP1 POP SWAP2 SWAP1 POP JUMP JUMPDEST PUSH1 0x0 PUSH1 0x20 DUP3 ADD SWAP1 POP DUP2 DUP2 SUB PUSH1 0x0 DUP4 ADD MSTORE PUSH2 0x18D2 DUP2 PUSH2 0x13AE JUMP JUMPDEST SWAP1 POP SWAP2 SWAP1 POP JUMP JUMPDEST PUSH1 0x0 PUSH1 0x20 DUP3 ADD SWAP1 POP DUP2 DUP2 SUB PUSH1 0x0 DUP4 ADD MSTORE PUSH2 0x18F2 DUP2 PUSH2 0x1414 JUMP JUMPDEST SWAP1 POP SWAP2 SWAP1 POP JUMP JUMPDEST PUSH1 0x0 PUSH1 0x20 DUP3 ADD SWAP1 POP DUP2 DUP2 SUB PUSH1 0x0 DUP4 ADD MSTORE PUSH2 0x1912 DUP2 PUSH2 0x147A JUMP JUMPDEST SWAP1 POP SWAP2 SWAP1 POP JUMP JUMPDEST PUSH1 0x0 PUSH1 0x20 DUP3 ADD SWAP1 POP DUP2 DUP2 SUB PUSH1 0x0 DUP4 ADD MSTORE PUSH2 0x1932 DUP2 PUSH2 0x14E0 JUMP JUMPDEST SWAP1 POP SWAP2 SWAP1 POP JUMP JUMPDEST PUSH1 0x0 PUSH1 0x20 DUP3 ADD SWAP1 POP DUP2 DUP2 SUB PUSH1 0x0 DUP4 ADD MSTORE PUSH2 0x1952 DUP2 PUSH2 0x1546 JUMP JUMPDEST SWAP1 POP SWAP2 SWAP1 POP JUMP JUMPDEST PUSH1 0x0 PUSH1 0x20 DUP3 ADD SWAP1 POP DUP2 DUP2 SUB PUSH1 0x0 DUP4 ADD MSTORE PUSH2 0x1972 DUP2 PUSH2 0x15AC JUMP JUMPDEST SWAP1 POP SWAP2 SWAP1 POP JUMP JUMPDEST PUSH1 0x0 PUSH1 0x20 DUP3 ADD SWAP1 POP PUSH2 0x198E PUSH1 0x0 DUP4 ADD DUP5 PUSH2 0x1612 JUMP JUMPDEST SWAP3 SWAP2 POP POP JUMP JUMPDEST PUSH1 0x0 PUSH1 0x60 DUP3 ADD SWAP1 POP PUSH2 0x19A9 PUSH1 0x0 DUP4 ADD DUP7 PUSH2 0x1612 JUMP JUMPDEST PUSH2 0x19B6 PUSH1 0x20 DUP4 ADD DUP6 PUSH2 0x1077 JUMP JUMPDEST PUSH2 0x19C3 PUSH1 0x40 DUP4 ADD DUP5 PUSH2 0x10B3 JUMP JUMPDEST SWAP5 SWAP4 POP POP POP POP JUMP JUMPDEST PUSH1 0x0 PUSH1 0x40 MLOAD SWAP1 POP DUP2 DUP2 ADD DUP2 DUP2 LT PUSH8 0xFFFFFFFFFFFFFFFF DUP3 GT OR ISZERO PUSH2 0x19EE JUMPI PUSH1 0x0 DUP1 REVERT JUMPDEST DUP1 PUSH1 0x40 MSTORE POP SWAP2 SWAP1 POP JUMP JUMPDEST PUSH1 0x0 PUSH8 0xFFFFFFFFFFFFFFFF DUP3 GT ISZERO PUSH2 0x1A0F JUMPI PUSH1 0x0 DUP1 REVERT JUMPDEST PUSH1 0x1F NOT PUSH1 0x1F DUP4 ADD AND SWAP1 POP PUSH1 0x20 DUP2 ADD SWAP1 POP SWAP2 SWAP1 POP JUMP JUMPDEST PUSH1 0x0 PUSH8 0xFFFFFFFFFFFFFFFF DUP3 GT ISZERO PUSH2 0x1A3B JUMPI PUSH1 0x0 DUP1 REVERT JUMPDEST PUSH1 0x1F NOT PUSH1 0x1F DUP4 ADD AND SWAP1 POP PUSH1 0x20 DUP2 ADD SWAP1 POP SWAP2 SWAP1 POP JUMP JUMPDEST PUSH1 0x0 DUP2 MLOAD SWAP1 POP SWAP2 SWAP1 POP JUMP JUMPDEST PUSH1 0x0 DUP3 DUP3 MSTORE PUSH1 0x20 DUP3 ADD SWAP1 POP SWAP3 SWAP2 POP POP JUMP JUMPDEST PUSH1 0x0 DUP3 DUP3 MSTORE PUSH1 0x20 DUP3 ADD SWAP1 POP SWAP3 SWAP2 POP POP JUMP JUMPDEST PUSH1 0x0 DUP2 SWAP1 POP SWAP3 SWAP2 POP POP JUMP JUMPDEST PUSH1 0x0 PUSH2 0x1A93 DUP3 PUSH2 0x1AD5 JUMP JUMPDEST SWAP1 POP SWAP2 SWAP1 POP JUMP JUMPDEST PUSH1 0x0 PUSH2 0x1AA5 DUP3 PUSH2 0x1AD5 JUMP JUMPDEST SWAP1 POP SWAP2 SWAP1 POP JUMP JUMPDEST PUSH1 0x0 DUP2 ISZERO ISZERO SWAP1 POP SWAP2 SWAP1 POP JUMP JUMPDEST PUSH1 0x0 DUP2 SWAP1 POP SWAP2 SWAP1 POP JUMP JUMPDEST PUSH1 0x0 DUP2 SWAP1 POP PUSH2 0x1AD0 DUP3 PUSH2 0x1BD5 JUMP JUMPDEST SWAP2 SWAP1 POP JUMP JUMPDEST PUSH1 0x0 PUSH20 0xFFFFFFFFFFFFFFFFFFFFFFFFFFFFFFFFFFFFFFFF DUP3 AND SWAP1 POP SWAP2 SWAP1 POP JUMP JUMPDEST PUSH1 0x0 DUP2 SWAP1 POP SWAP2 SWAP1 POP JUMP JUMPDEST PUSH1 0x0 PUSH1 0xFF DUP3 AND SWAP1 POP SWAP2 SWAP1 POP JUMP JUMPDEST PUSH1 0x0 PUSH2 0x1B17 DUP3 PUSH2 0x1B54 JUMP JUMPDEST SWAP1 POP SWAP2 SWAP1 POP JUMP JUMPDEST PUSH1 0x0 PUSH2 0x1B29 DUP3 PUSH2 0x1B30 JUMP JUMPDEST SWAP1 POP SWAP2 SWAP1 POP JUMP JUMPDEST PUSH1 0x0 PUSH2 0x1B3B DUP3 PUSH2 0x1AD5 JUMP JUMPDEST SWAP1 POP SWAP2 SWAP1 POP JUMP JUMPDEST PUSH1 0x0 PUSH2 0x1B4D DUP3 PUSH2 0x1AC2 JUMP JUMPDEST SWAP1 POP SWAP2 SWAP1 POP JUMP JUMPDEST PUSH1 0x0 PUSH2 0x1B5F DUP3 PUSH2 0x1B66 JUMP JUMPDEST SWAP1 POP SWAP2 SWAP1 POP JUMP JUMPDEST PUSH1 0x0 PUSH2 0x1B71 DUP3 PUSH2 0x1AD5 JUMP JUMPDEST SWAP1 POP SWAP2 SWAP1 POP JUMP JUMPDEST DUP3 DUP2 DUP4 CALLDATACOPY PUSH1 0x0 DUP4 DUP4 ADD MSTORE POP POP POP JUMP JUMPDEST PUSH1 0x0 JUMPDEST DUP4 DUP2 LT ISZERO PUSH2 0x1BA5 JUMPI DUP1 DUP3 ADD MLOAD DUP2 DUP5 ADD MSTORE PUSH1 0x20 DUP2 ADD SWAP1 POP PUSH2 0x1B8A JUMP JUMPDEST DUP4 DUP2 GT ISZERO PUSH2 0x1BB4 JUMPI PUSH1 0x0 DUP5 DUP5 ADD MSTORE JUMPDEST POP POP POP POP JUMP JUMPDEST PUSH1 0x0 DUP2 SWAP1 POP SWAP2 SWAP1 POP JUMP JUMPDEST PUSH1 0x0 PUSH1 0x1F NOT PUSH1 0x1F DUP4 ADD AND SWAP1 POP SWAP2 SWAP1 POP JUMP JUMPDEST PUSH1 0x4 DUP2 LT PUSH2 0x1BDF JUMPI INVALID JUMPDEST POP JUMP JUMPDEST PUSH2 0x1BEB DUP2 PUSH2 0x1A88 JUMP JUMPDEST DUP2 EQ PUSH2 0x1BF6 JUMPI PUSH1 0x0 DUP1 REVERT JUMPDEST POP JUMP JUMPDEST PUSH2 0x1C02 DUP2 PUSH2 0x1A9A JUMP JUMPDEST DUP2 EQ PUSH2 0x1C0D JUMPI PUSH1 0x0 DUP1 REVERT JUMPDEST POP JUMP JUMPDEST PUSH2 0x1C19 DUP2 PUSH2 0x1AB8 JUMP JUMPDEST DUP2 EQ PUSH2 0x1C24 JUMPI PUSH1 0x0 DUP1 REVERT JUMPDEST POP JUMP JUMPDEST PUSH2 0x1C30 DUP2 PUSH2 0x1AF5 JUMP JUMPDEST DUP2 EQ PUSH2 0x1C3B JUMPI PUSH1 0x0 DUP1 REVERT JUMPDEST POP JUMP INVALID LOG3 PUSH6 0x627A7A723158 KECCAK256 0xd6 0xdd 0xd8 PUSH16 0x13596B1D2A329E2D747F54442AB9F7AD LT NOT CALLDATALOAD 0x22 RETURNDATASIZE PUSH17 0xAD9572CBFE86C6578706572696D656E74 PUSH2 0x6CF5 PUSH5 0x736F6C6343 STOP SDIV SIGNEXTEND STOP BLOCKHASH "
    }
  },
  "interface": [
    {
      "constant": true,
      "inputs": [],
      "name": "forfeited",
      "outputs": [
        {
          "internalType": "bool",
          "name": "",
          "type": "bool"
        }
      ],
      "payable": false,
      "stateMutability": "view",
      "type": "function"
    },
    {
      "constant": false,
      "inputs": [
        {
          "components": [
            {
              "internalType": "address",
              "name": "to",
              "type": "address"
            },
            {
              "internalType": "address payable",
              "name": "from",
              "type": "address"
            },
            {
              "internalType": "bytes",
              "name": "data",
              "type": "bytes"
            },
            {
              "internalType": "uint256",
              "name": "deadline",
              "type": "uint256"
            },
            {
              "internalType": "uint256",
              "name": "refund",
              "type": "uint256"
            },
            {
              "internalType": "uint256",
              "name": "gasLimit",
              "type": "uint256"
            },
            {
              "internalType": "address",
              "name": "relay",
              "type": "address"
            }
          ],
          "internalType": "struct RelayTxStruct.RelayTx",
          "name": "_relayTx",
          "type": "tuple"
        },
        {
          "internalType": "bytes",
          "name": "_sig",
          "type": "bytes"
        }
      ],
      "name": "requestRefund",
      "outputs": [],
      "payable": false,
      "stateMutability": "nonpayable",
      "type": "function"
    },
    {
      "constant": true,
      "inputs": [
        {
          "internalType": "bytes32",
          "name": "",
          "type": "bytes32"
        }
      ],
      "name": "refunds",
      "outputs": [
        {
          "internalType": "enum RefundAdjudicator.RefundStatus",
          "name": "status",
          "type": "uint8"
        },
        {
          "internalType": "uint256",
          "name": "deadline",
          "type": "uint256"
        }
      ],
      "payable": false,
      "stateMutability": "view",
      "type": "function"
    },
    {
      "constant": true,
      "inputs": [
        {
          "components": [
            {
              "internalType": "address",
              "name": "to",
              "type": "address"
            },
            {
              "internalType": "address payable",
              "name": "from",
              "type": "address"
            },
            {
              "internalType": "bytes",
              "name": "data",
              "type": "bytes"
            },
            {
              "internalType": "uint256",
              "name": "deadline",
              "type": "uint256"
            },
            {
              "internalType": "uint256",
              "name": "refund",
              "type": "uint256"
            },
            {
              "internalType": "uint256",
              "name": "gasLimit",
              "type": "uint256"
            },
            {
              "internalType": "address",
              "name": "relay",
              "type": "address"
            }
          ],
          "internalType": "struct RelayTxStruct.RelayTx",
          "name": "self",
          "type": "tuple"
        }
      ],
      "name": "computeRelayTxId",
      "outputs": [
        {
          "internalType": "bytes32",
          "name": "",
          "type": "bytes32"
        }
      ],
      "payable": false,
      "stateMutability": "pure",
      "type": "function"
    },
    {
      "constant": true,
      "inputs": [],
      "name": "refundPeriod",
      "outputs": [
        {
          "internalType": "uint256",
          "name": "",
          "type": "uint256"
        }
      ],
      "payable": false,
      "stateMutability": "view",
      "type": "function"
    },
    {
      "constant": true,
      "inputs": [],
      "name": "relay",
      "outputs": [
        {
          "internalType": "contract Relay",
          "name": "",
          "type": "address"
        }
      ],
      "payable": false,
      "stateMutability": "view",
      "type": "function"
    },
    {
      "constant": false,
      "inputs": [
        {
          "components": [
            {
              "internalType": "address",
              "name": "to",
              "type": "address"
            },
            {
              "internalType": "address payable",
              "name": "from",
              "type": "address"
            },
            {
              "internalType": "bytes",
              "name": "data",
              "type": "bytes"
            },
            {
              "internalType": "uint256",
              "name": "deadline",
              "type": "uint256"
            },
            {
              "internalType": "uint256",
              "name": "refund",
              "type": "uint256"
            },
            {
              "internalType": "uint256",
              "name": "gasLimit",
              "type": "uint256"
            },
            {
              "internalType": "address",
              "name": "relay",
              "type": "address"
            }
          ],
          "internalType": "struct RelayTxStruct.RelayTx",
          "name": "_relayTx",
          "type": "tuple"
        }
      ],
      "name": "issueRefund",
      "outputs": [],
      "payable": true,
      "stateMutability": "payable",
      "type": "function"
    },
    {
      "constant": false,
      "inputs": [
        {
          "components": [
            {
              "internalType": "address",
              "name": "to",
              "type": "address"
            },
            {
              "internalType": "address payable",
              "name": "from",
              "type": "address"
            },
            {
              "internalType": "bytes",
              "name": "data",
              "type": "bytes"
            },
            {
              "internalType": "uint256",
              "name": "deadline",
              "type": "uint256"
            },
            {
              "internalType": "uint256",
              "name": "refund",
              "type": "uint256"
            },
            {
              "internalType": "uint256",
              "name": "gasLimit",
              "type": "uint256"
            },
            {
              "internalType": "address",
              "name": "relay",
              "type": "address"
            }
          ],
          "internalType": "struct RelayTxStruct.RelayTx",
          "name": "_relayTx",
          "type": "tuple"
        }
      ],
      "name": "withdrawRefund",
      "outputs": [],
      "payable": false,
      "stateMutability": "nonpayable",
      "type": "function"
    },
    {
      "constant": false,
      "inputs": [
        {
          "components": [
            {
              "internalType": "address",
              "name": "to",
              "type": "address"
            },
            {
              "internalType": "address payable",
              "name": "from",
              "type": "address"
            },
            {
              "internalType": "bytes",
              "name": "data",
              "type": "bytes"
            },
            {
              "internalType": "uint256",
              "name": "deadline",
              "type": "uint256"
            },
            {
              "internalType": "uint256",
              "name": "refund",
              "type": "uint256"
            },
            {
              "internalType": "uint256",
              "name": "gasLimit",
              "type": "uint256"
            },
            {
              "internalType": "address",
              "name": "relay",
              "type": "address"
            }
          ],
          "internalType": "struct RelayTxStruct.RelayTx",
          "name": "_relayTx",
          "type": "tuple"
        }
      ],
      "name": "issueForfeit",
      "outputs": [],
      "payable": false,
      "stateMutability": "nonpayable",
      "type": "function"
    },
    {
      "inputs": [
        {
          "internalType": "contract Relay",
          "name": "_relay",
          "type": "address"
        },
        {
          "internalType": "address",
          "name": "_receiptSigner",
          "type": "address"
        },
        {
          "internalType": "uint256",
          "name": "_refundPeriod",
          "type": "uint256"
        }
      ],
      "payable": false,
      "stateMutability": "nonpayable",
      "type": "constructor"
    },
    {
      "anonymous": false,
      "inputs": [
        {
          "indexed": true,
          "internalType": "bytes32",
          "name": "relayTxId",
          "type": "bytes32"
        },
        {
          "indexed": false,
          "internalType": "address",
          "name": "user",
          "type": "address"
        },
        {
          "indexed": false,
          "internalType": "uint256",
          "name": "refund",
          "type": "uint256"
        },
        {
          "indexed": false,
          "internalType": "uint256",
          "name": "deadline",
          "type": "uint256"
        }
      ],
      "name": "RequestRefund",
      "type": "event"
    },
    {
      "anonymous": false,
      "inputs": [
        {
          "indexed": true,
          "internalType": "bytes32",
          "name": "relayTxId",
          "type": "bytes32"
        },
        {
          "indexed": false,
          "internalType": "address",
          "name": "relayer",
          "type": "address"
        },
        {
          "indexed": false,
          "internalType": "address",
          "name": "user",
          "type": "address"
        },
        {
          "indexed": false,
          "internalType": "uint256",
          "name": "refund",
          "type": "uint256"
        }
      ],
      "name": "RefundIssued",
      "type": "event"
    },
    {
      "anonymous": false,
      "inputs": [],
      "name": "ForfeitIssued",
      "type": "event"
    }
  ]
}